{
  "_format": "hh-sol-artifact-1",
  "contractName": "LiquidityManager",
  "sourceName": "contracts/LiquidityManager.sol",
  "abi": [
    {
      "inputs": [
        {
          "internalType": "address",
          "name": "npmAddress",
          "type": "address"
        }
      ],
      "stateMutability": "nonpayable",
      "type": "constructor"
    },
    {
      "inputs": [
        {
          "internalType": "address",
          "name": "poolAddress",
          "type": "address"
        },
        {
          "internalType": "uint256",
          "name": "amount0",
          "type": "uint256"
        },
        {
          "internalType": "uint256",
          "name": "amount1",
          "type": "uint256"
        },
        {
          "internalType": "uint256",
          "name": "width",
          "type": "uint256"
        }
      ],
      "name": "addLiquidity",
      "outputs": [
        {
          "internalType": "int24",
          "name": "",
          "type": "int24"
        },
        {
          "internalType": "int24",
          "name": "",
          "type": "int24"
        }
      ],
      "stateMutability": "nonpayable",
      "type": "function"
    },
    {
      "inputs": [
        {
          "internalType": "uint256",
          "name": "price",
          "type": "uint256"
        },
        {
          "internalType": "uint256",
          "name": "width",
          "type": "uint256"
        },
        {
          "internalType": "uint256",
          "name": "decAmount0",
          "type": "uint256"
        },
        {
          "internalType": "uint256",
          "name": "decAmount1",
          "type": "uint256"
        }
      ],
      "name": "countTicks",
      "outputs": [
        {
          "internalType": "int24",
          "name": "tick_lower",
          "type": "int24"
        },
        {
          "internalType": "int24",
          "name": "tick_upper",
          "type": "int24"
        }
      ],
      "stateMutability": "pure",
      "type": "function"
    },
    {
      "inputs": [
        {
          "internalType": "address",
          "name": "poolAddress",
          "type": "address"
        }
      ],
      "name": "getPoolInfo",
      "outputs": [
        {
          "internalType": "address",
          "name": "",
          "type": "address"
        },
        {
          "internalType": "address",
          "name": "",
          "type": "address"
        },
        {
          "internalType": "uint24",
          "name": "",
          "type": "uint24"
        },
        {
          "internalType": "uint256",
          "name": "",
          "type": "uint256"
        }
      ],
      "stateMutability": "view",
      "type": "function"
    },
    {
      "inputs": [],
      "name": "positionManager",
      "outputs": [
        {
          "internalType": "contract INonfungiblePositionManager",
          "name": "",
          "type": "address"
        }
      ],
      "stateMutability": "view",
      "type": "function"
    }
  ],
  "bytecode": "0x608060405234801561001057600080fd5b50604051612471380380612471833981810160405281019061003291906100db565b806000806101000a81548173ffffffffffffffffffffffffffffffffffffffff021916908373ffffffffffffffffffffffffffffffffffffffff16021790555050610108565b600080fd5b600073ffffffffffffffffffffffffffffffffffffffff82169050919050565b60006100a88261007d565b9050919050565b6100b88161009d565b81146100c357600080fd5b50565b6000815190506100d5816100af565b92915050565b6000602082840312156100f1576100f0610078565b5b60006100ff848285016100c6565b91505092915050565b61235a806101176000396000f3fe608060405234801561001057600080fd5b506004361061004c5760003560e01c806306bfa938146100515780631ece366a14610084578063791b98bc146100b5578063f70963ba146100d3575b600080fd5b61006b600480360381019061006691906114e5565b610104565b60405161007b9493929190611558565b60405180910390f35b61009e600480360381019061009991906115c9565b61035f565b6040516100ac92919061164c565b60405180910390f35b6100bd61090b565b6040516100ca91906116d4565b60405180910390f35b6100ed60048036038101906100e891906116ef565b61092f565b6040516100fb92919061164c565b60405180910390f35b600080600080600085905060008173ffffffffffffffffffffffffffffffffffffffff16630dfe16816040518163ffffffff1660e01b8152600401602060405180830381865afa15801561015c573d6000803e3d6000fd5b505050506040513d601f19601f82011682018060405250810190610180919061176b565b905060008273ffffffffffffffffffffffffffffffffffffffff1663d21220a76040518163ffffffff1660e01b8152600401602060405180830381865afa1580156101cf573d6000803e3d6000fd5b505050506040513d601f19601f820116820180604052508101906101f3919061176b565b905060008373ffffffffffffffffffffffffffffffffffffffff1663ddca3f436040518163ffffffff1660e01b8152600401602060405180830381865afa158015610242573d6000803e3d6000fd5b505050506040513d601f19601f8201168201806040525081019061026691906117c4565b905060008473ffffffffffffffffffffffffffffffffffffffff16633850c7bd6040518163ffffffff1660e01b815260040160e060405180830381865afa1580156102b5573d6000803e3d6000fd5b505050506040513d601f19601f820116820180604052508101906102d991906118f4565b505050505050905060007801000000000000000000000000000000000000000000000000828361030991906119c5565b73ffffffffffffffffffffffffffffffffffffffff166103299190611a5b565b78ffffffffffffffffffffffffffffffffffffffffffffffffff1690508484848399509950995099505050505050509193509193565b600080600085036103a5576040517f08c379a000000000000000000000000000000000000000000000000000000000815260040161039c90611b0f565b60405180910390fd5b600084036103e8576040517f08c379a00000000000000000000000000000000000000000000000000000000081526004016103df90611ba1565b60405180910390fd5b6000830361042b576040517f08c379a000000000000000000000000000000000000000000000000000000000815260040161042290611c33565b60405180910390fd5b60008060008061043a8a610104565b93509350935093506000899050600089905060008061045b858c868661092f565b915091508773ffffffffffffffffffffffffffffffffffffffff166323b872dd3330876040518463ffffffff1660e01b815260040161049c93929190611c53565b6020604051808303816000875af11580156104bb573d6000803e3d6000fd5b505050506040513d601f19601f820116820180604052508101906104df9190611c8a565b508673ffffffffffffffffffffffffffffffffffffffff166323b872dd3330866040518463ffffffff1660e01b815260040161051d93929190611c53565b6020604051808303816000875af115801561053c573d6000803e3d6000fd5b505050506040513d601f19601f820116820180604052508101906105609190611c8a565b508773ffffffffffffffffffffffffffffffffffffffff1663095ea7b360008054906101000a900473ffffffffffffffffffffffffffffffffffffffff16866040518363ffffffff1660e01b81526004016105bc929190611cb7565b6020604051808303816000875af11580156105db573d6000803e3d6000fd5b505050506040513d601f19601f820116820180604052508101906105ff9190611c8a565b508673ffffffffffffffffffffffffffffffffffffffff1663095ea7b360008054906101000a900473ffffffffffffffffffffffffffffffffffffffff16856040518363ffffffff1660e01b815260040161065b929190611cb7565b6020604051808303816000875af115801561067a573d6000803e3d6000fd5b505050506040513d601f19601f8201168201806040525081019061069e9190611c8a565b5060008060008054906101000a900473ffffffffffffffffffffffffffffffffffffffff1673ffffffffffffffffffffffffffffffffffffffff1663883164566040518061016001604052808d73ffffffffffffffffffffffffffffffffffffffff1681526020018c73ffffffffffffffffffffffffffffffffffffffff1681526020018b62ffffff1681526020018760020b81526020018660020b815260200189815260200188815260200160008152602001600081526020013373ffffffffffffffffffffffffffffffffffffffff168152602001428152506040518263ffffffff1660e01b81526004016107959190611dfd565b6080604051808303816000875af11580156107b4573d6000803e3d6000fd5b505050506040513d601f19601f820116820180604052508101906107d89190611e76565b9350935050508973ffffffffffffffffffffffffffffffffffffffff1663a9059cbb3384896108079190611edd565b6040518363ffffffff1660e01b8152600401610824929190611cb7565b6020604051808303816000875af1158015610843573d6000803e3d6000fd5b505050506040513d601f19601f820116820180604052508101906108679190611c8a565b508873ffffffffffffffffffffffffffffffffffffffff1663a9059cbb3383886108919190611edd565b6040518363ffffffff1660e01b81526004016108ae929190611cb7565b6020604051808303816000875af11580156108cd573d6000803e3d6000fd5b505050506040513d601f19601f820116820180604052508101906108f19190611c8a565b5083839b509b505050505050505050505094509492505050565b60008054906101000a900473ffffffffffffffffffffffffffffffffffffffff1681565b60008060008061094188888888610982565b91509150600061095083610b81565b9050600061095d83610b81565b905061096882610bad565b955061097381610bad565b94505050505094509492505050565b60008060006109ab6002876109979190612044565b6305f5e1006109a69190611edd565b610fac565b87858760046109ba919061208f565b6109c4919061208f565b6109ce919061208f565b6109d8919061208f565b6002856109e59190612044565b85878a60026109f4919061208f565b6109fe919061208f565b610a08919061208f565b6002888b610a16919061208f565b610a209190612044565b610a2a9190611edd565b610a3491906120d1565b61271088610a4291906120d1565b610a4c919061208f565b610a5691906120d1565b90506000610a7b87612710610a6b9190611edd565b89610a76919061208f565b610fac565b866002610a88919061208f565b610a92919061208f565b610a9b83610fac565b86888b610aa8919061208f565b610ab29190611edd565b610ac86127108b610ac391906120d1565b610fac565b610ad2919061208f565b610adc91906120d1565b610ae69190612105565b9050600086610af48a610fac565b610afe919061208f565b86610b099190612105565b610b128a610fac565b8884610b1e919061208f565b88610b299190612105565b610b3391906120d1565b610b3d9190611edd565b90506c0100000000000000000000000081610b58919061208f565b94506c0100000000000000000000000082610b73919061208f565b935050505094509492505050565b6000818291508173ffffffffffffffffffffffffffffffffffffffff1614610ba857600080fd5b919050565b60006401000276a373ffffffffffffffffffffffffffffffffffffffff168273ffffffffffffffffffffffffffffffffffffffff1610158015610c2f575073fffd8963efd1fc6a506488495d951d5263988d2673ffffffffffffffffffffffffffffffffffffffff168273ffffffffffffffffffffffffffffffffffffffff16105b610c6e576040517f08c379a0000000000000000000000000000000000000000000000000000000008152600401610c6590612182565b60405180910390fd5b600060208373ffffffffffffffffffffffffffffffffffffffff16901b9050600081905060006fffffffffffffffffffffffffffffffff821160071b808217915082811c92505067ffffffffffffffff821160061b808217915082811c92505063ffffffff821160051b808217915082811c92505061ffff821160041b808217915082811c92505060ff821160031b808217915082811c925050600f821160021b808217915082811c9250506003821160011b808217915082811c9250506001821180821791505060808110610d5557607f81610d4b9190611edd565b83901c9150610d68565b80607f610d629190611edd565b83901b91505b60006040608083610d7991906121ac565b901b9050828302607f1c92508260801c80603f1b8217915083811c935050828302607f1c92508260801c80603e1b8217915083811c935050828302607f1c92508260801c80603d1b8217915083811c935050828302607f1c92508260801c80603c1b8217915083811c935050828302607f1c92508260801c80603b1b8217915083811c935050828302607f1c92508260801c80603a1b8217915083811c935050828302607f1c92508260801c8060391b8217915083811c935050828302607f1c92508260801c8060381b8217915083811c935050828302607f1c92508260801c8060371b8217915083811c935050828302607f1c92508260801c8060361b8217915083811c935050828302607f1c92508260801c8060351b8217915083811c935050828302607f1c92508260801c8060341b8217915083811c935050828302607f1c92508260801c8060331b8217915083811c935050828302607f1c92508260801c8060321b82179150506000693627a301d71055774c8582610efc91906121ef565b9050600060806f028f6481ab7f045a5af012a19d003aaa83610f1e91906121ac565b901d9050600060806fdb2df09e81959a81455e260799a0632f84610f429190612267565b901d90508060020b8260020b14610f9c578873ffffffffffffffffffffffffffffffffffffffff16610f7382611026565b73ffffffffffffffffffffffffffffffffffffffff161115610f955781610f97565b805b610f9e565b815b975050505050505050919050565b600060038211156110135781905060006001600284610fcb9190612105565b610fd591906120d1565b90505b8181101561100d578091506002818285610ff29190612105565b610ffc91906120d1565b6110069190612105565b9050610fd8565b50611021565b6000821461102057600190505b5b919050565b60008060008360020b1261103d578260020b61104b565b8260020b61104a906122ab565b5b9050600080600183160361107057700100000000000000000000000000000000611082565b6ffffcb933bd6fad37aa2d162d1a5940015b70ffffffffffffffffffffffffffffffffff169050600060028316146110c55760806ffff97272373d413259a46990580e213a826110c0919061208f565b901c90505b600060048316146110f35760806ffff2e50f5f656932ef12357cf3c7fdcc826110ee919061208f565b901c90505b600060088316146111215760806fffe5caca7e10e4e61c3624eaa0941cd08261111c919061208f565b901c90505b6000601083161461114f5760806fffcb9843d60f6159c9db58835c9266448261114a919061208f565b901c90505b6000602083161461117d5760806fff973b41fa98c081472e6896dfb254c082611178919061208f565b901c90505b600060408316146111ab5760806fff2ea16466c96a3843ec78b326b52861826111a6919061208f565b901c90505b600060808316146111d95760806ffe5dee046a99a2a811c461f1969c3053826111d4919061208f565b901c90505b60006101008316146112085760806ffcbe86c7900a88aedcffc83b479aa3a482611203919061208f565b901c90505b60006102008316146112375760806ff987a7253ac413176f2b074cf7815e5482611232919061208f565b901c90505b60006104008316146112665760806ff3392b0822b70005940c7a398e4b70f382611261919061208f565b901c90505b60006108008316146112955760806fe7159475a2c29b7443b29c7fa6e889d982611290919061208f565b901c90505b60006110008316146112c45760806fd097f3bdfd2022b8845ad8f792aa5825826112bf919061208f565b901c90505b60006120008316146112f35760806fa9f746462d870fdf8a65dc1f90e061e5826112ee919061208f565b901c90505b60006140008316146113225760806f70d869a156d2a1b890bb3df62baf32f78261131d919061208f565b901c90505b60006180008316146113515760806f31be135f97d08fd981231505542fcfa68261134c919061208f565b901c90505b6000620100008316146113815760806f09aa508b5b7a84e1c677de54f3e99bc98261137c919061208f565b901c90505b6000620200008316146113b05760806e5d6af8dedb81196699c329225ee604826113ab919061208f565b901c90505b6000620400008316146113de5760806d2216e584f5fa1ea926041bedfe98826113d9919061208f565b901c90505b60006208000083161461140a5760806b048a170391f7dc42444e8fa282611405919061208f565b901c90505b60008460020b131561144557807fffffffffffffffffffffffffffffffffffffffffffffffffffffffffffffffff6114429190612105565b90505b60006401000000008261145891906122f3565b14611464576001611467565b60005b60ff16602082901c61147991906120d1565b92505050919050565b600080fd5b600073ffffffffffffffffffffffffffffffffffffffff82169050919050565b60006114b282611487565b9050919050565b6114c2816114a7565b81146114cd57600080fd5b50565b6000813590506114df816114b9565b92915050565b6000602082840312156114fb576114fa611482565b5b6000611509848285016114d0565b91505092915050565b61151b816114a7565b82525050565b600062ffffff82169050919050565b61153981611521565b82525050565b6000819050919050565b6115528161153f565b82525050565b600060808201905061156d6000830187611512565b61157a6020830186611512565b6115876040830185611530565b6115946060830184611549565b95945050505050565b6115a68161153f565b81146115b157600080fd5b50565b6000813590506115c38161159d565b92915050565b600080600080608085870312156115e3576115e2611482565b5b60006115f1878288016114d0565b9450506020611602878288016115b4565b9350506040611613878288016115b4565b9250506060611624878288016115b4565b91505092959194509250565b60008160020b9050919050565b61164681611630565b82525050565b6000604082019050611661600083018561163d565b61166e602083018461163d565b9392505050565b6000819050919050565b600061169a61169561169084611487565b611675565b611487565b9050919050565b60006116ac8261167f565b9050919050565b60006116be826116a1565b9050919050565b6116ce816116b3565b82525050565b60006020820190506116e960008301846116c5565b92915050565b6000806000806080858703121561170957611708611482565b5b6000611717878288016115b4565b9450506020611728878288016115b4565b9350506040611739878288016115b4565b925050606061174a878288016115b4565b91505092959194509250565b600081519050611765816114b9565b92915050565b60006020828403121561178157611780611482565b5b600061178f84828501611756565b91505092915050565b6117a181611521565b81146117ac57600080fd5b50565b6000815190506117be81611798565b92915050565b6000602082840312156117da576117d9611482565b5b60006117e8848285016117af565b91505092915050565b6117fa81611487565b811461180557600080fd5b50565b600081519050611817816117f1565b92915050565b61182681611630565b811461183157600080fd5b50565b6000815190506118438161181d565b92915050565b600061ffff82169050919050565b61186081611849565b811461186b57600080fd5b50565b60008151905061187d81611857565b92915050565b600060ff82169050919050565b61189981611883565b81146118a457600080fd5b50565b6000815190506118b681611890565b92915050565b60008115159050919050565b6118d1816118bc565b81146118dc57600080fd5b50565b6000815190506118ee816118c8565b92915050565b600080600080600080600060e0888a03121561191357611912611482565b5b60006119218a828b01611808565b97505060206119328a828b01611834565b96505060406119438a828b0161186e565b95505060606119548a828b0161186e565b94505060806119658a828b0161186e565b93505060a06119768a828b016118a7565b92505060c06119878a828b016118df565b91505092959891949750929550565b7f4e487b7100000000000000000000000000000000000000000000000000000000600052601160045260246000fd5b60006119d082611487565b91506119db83611487565b92508282026119e981611487565b91508282048414831517611a00576119ff611996565b5b5092915050565b600078ffffffffffffffffffffffffffffffffffffffffffffffffff82169050919050565b7f4e487b7100000000000000000000000000000000000000000000000000000000600052601260045260246000fd5b6000611a6682611a07565b9150611a7183611a07565b925082611a8157611a80611a2c565b5b828204905092915050565b600082825260208201905092915050565b7f43616e6e6f7420616464203020616d6f756e74206f6620666972737420746f6b60008201527f656e000000000000000000000000000000000000000000000000000000000000602082015250565b6000611af9602283611a8c565b9150611b0482611a9d565b604082019050919050565b60006020820190508181036000830152611b2881611aec565b9050919050565b7f43616e6e6f7420616464203020616d6f756e74206f66207365636f6e6420746f60008201527f6b656e0000000000000000000000000000000000000000000000000000000000602082015250565b6000611b8b602383611a8c565b9150611b9682611b2f565b604082019050919050565b60006020820190508181036000830152611bba81611b7e565b9050919050565b7f43616e6e6f7420616464206c697175696469747920776974682030207769647460008201527f6800000000000000000000000000000000000000000000000000000000000000602082015250565b6000611c1d602183611a8c565b9150611c2882611bc1565b604082019050919050565b60006020820190508181036000830152611c4c81611c10565b9050919050565b6000606082019050611c686000830186611512565b611c756020830185611512565b611c826040830184611549565b949350505050565b600060208284031215611ca057611c9f611482565b5b6000611cae848285016118df565b91505092915050565b6000604082019050611ccc6000830185611512565b611cd96020830184611549565b9392505050565b611ce9816114a7565b82525050565b611cf881611521565b82525050565b611d0781611630565b82525050565b611d168161153f565b82525050565b61016082016000820151611d336000850182611ce0565b506020820151611d466020850182611ce0565b506040820151611d596040850182611cef565b506060820151611d6c6060850182611cfe565b506080820151611d7f6080850182611cfe565b5060a0820151611d9260a0850182611d0d565b5060c0820151611da560c0850182611d0d565b5060e0820151611db860e0850182611d0d565b50610100820151611dcd610100850182611d0d565b50610120820151611de2610120850182611ce0565b50610140820151611df7610140850182611d0d565b50505050565b600061016082019050611e136000830184611d1c565b92915050565b600081519050611e288161159d565b92915050565b60006fffffffffffffffffffffffffffffffff82169050919050565b611e5381611e2e565b8114611e5e57600080fd5b50565b600081519050611e7081611e4a565b92915050565b60008060008060808587031215611e9057611e8f611482565b5b6000611e9e87828801611e19565b9450506020611eaf87828801611e61565b9350506040611ec087828801611e19565b9250506060611ed187828801611e19565b91505092959194509250565b6000611ee88261153f565b9150611ef38361153f565b9250828203905081811115611f0b57611f0a611996565b5b92915050565b60008160011c9050919050565b6000808291508390505b6001851115611f6857808604811115611f4457611f43611996565b5b6001851615611f535780820291505b8081029050611f6185611f11565b9450611f28565b94509492505050565b600082611f81576001905061203d565b81611f8f576000905061203d565b8160018114611fa55760028114611faf57611fde565b600191505061203d565b60ff841115611fc157611fc0611996565b5b8360020a915084821115611fd857611fd7611996565b5b5061203d565b5060208310610133831016604e8410600b84101617156120135782820a90508381111561200e5761200d611996565b5b61203d565b6120208484846001611f1e565b9250905081840481111561203757612036611996565b5b81810290505b9392505050565b600061204f8261153f565b915061205a83611883565b92506120877fffffffffffffffffffffffffffffffffffffffffffffffffffffffffffffffff8484611f71565b905092915050565b600061209a8261153f565b91506120a58361153f565b92508282026120b38161153f565b915082820484148315176120ca576120c9611996565b5b5092915050565b60006120dc8261153f565b91506120e78361153f565b92508282019050808211156120ff576120fe611996565b5b92915050565b60006121108261153f565b915061211b8361153f565b92508261212b5761212a611a2c565b5b828204905092915050565b7f5200000000000000000000000000000000000000000000000000000000000000600082015250565b600061216c600183611a8c565b915061217782612136565b602082019050919050565b6000602082019050818103600083015261219b8161215f565b9050919050565b6000819050919050565b60006121b7826121a2565b91506121c2836121a2565b92508282039050818112600084121682821360008512151617156121e9576121e8611996565b5b92915050565b60006121fa826121a2565b9150612205836121a2565b9250828202612213816121a2565b91507f8000000000000000000000000000000000000000000000000000000000000000841460008412161561224b5761224a611996565b5b82820584148315176122605761225f611996565b5b5092915050565b6000612272826121a2565b915061227d836121a2565b9250828201905082811215600083121683821260008412151617156122a5576122a4611996565b5b92915050565b60006122b6826121a2565b91507f800000000000000000000000000000000000000000000000000000000000000082036122e8576122e7611996565b5b816000039050919050565b60006122fe8261153f565b91506123098361153f565b92508261231957612318611a2c565b5b82820690509291505056fea2646970667358221220788c080d8a044205f20530c6529d8fd84afb4fd730455e9e07a1cc14cf27d8f164736f6c634300081b0033",
  "linkReferences": {},
  "deployedLinkReferences": {}
}