{
  "contracts/LiquidityManager.sol": {
    "LiquidityManager": {
      "abi": [
        {
          "inputs": [
            {
              "internalType": "address",
              "name": "npmAddress",
              "type": "address"
            }
          ],
          "stateMutability": "nonpayable",
          "type": "constructor"
        },
        {
          "inputs": [
            {
              "internalType": "address",
              "name": "poolAddress",
              "type": "address"
            },
            {
              "internalType": "uint256",
              "name": "amount0",
              "type": "uint256"
            },
            {
              "internalType": "uint256",
              "name": "amount1",
              "type": "uint256"
            },
            {
              "internalType": "uint256",
              "name": "width",
              "type": "uint256"
            }
          ],
          "name": "addLiquidity",
          "outputs": [
            {
              "internalType": "int24",
              "name": "",
              "type": "int24"
            },
            {
              "internalType": "int24",
              "name": "",
              "type": "int24"
            }
          ],
          "stateMutability": "nonpayable",
          "type": "function"
        },
        {
          "inputs": [
            {
              "internalType": "uint256",
              "name": "price",
              "type": "uint256"
            },
            {
              "internalType": "uint256",
              "name": "width",
              "type": "uint256"
            },
            {
              "internalType": "uint256",
              "name": "decAmount0",
              "type": "uint256"
            },
            {
              "internalType": "uint256",
              "name": "decAmount1",
              "type": "uint256"
            }
          ],
          "name": "countTicks",
          "outputs": [
            {
              "internalType": "int24",
              "name": "tick_lower",
              "type": "int24"
            },
            {
              "internalType": "int24",
              "name": "tick_upper",
              "type": "int24"
            }
          ],
          "stateMutability": "pure",
          "type": "function"
        },
        {
          "inputs": [
            {
              "internalType": "address",
              "name": "poolAddress",
              "type": "address"
            }
          ],
          "name": "getPoolInfo",
          "outputs": [
            {
              "internalType": "address",
              "name": "",
              "type": "address"
            },
            {
              "internalType": "address",
              "name": "",
              "type": "address"
            },
            {
              "internalType": "uint24",
              "name": "",
              "type": "uint24"
            },
            {
              "internalType": "uint256",
              "name": "",
              "type": "uint256"
            }
          ],
          "stateMutability": "view",
          "type": "function"
        },
        {
          "inputs": [],
          "name": "positionManager",
          "outputs": [
            {
              "internalType": "contract INonfungiblePositionManager",
              "name": "",
              "type": "address"
            }
          ],
          "stateMutability": "view",
          "type": "function"
        }
      ],
      "evm": {
        "bytecode": {
          "linkReferences": {},
          "object": "608060405234801561001057600080fd5b50604051612471380380612471833981810160405281019061003291906100db565b806000806101000a81548173ffffffffffffffffffffffffffffffffffffffff021916908373ffffffffffffffffffffffffffffffffffffffff16021790555050610108565b600080fd5b600073ffffffffffffffffffffffffffffffffffffffff82169050919050565b60006100a88261007d565b9050919050565b6100b88161009d565b81146100c357600080fd5b50565b6000815190506100d5816100af565b92915050565b6000602082840312156100f1576100f0610078565b5b60006100ff848285016100c6565b91505092915050565b61235a806101176000396000f3fe608060405234801561001057600080fd5b506004361061004c5760003560e01c806306bfa938146100515780631ece366a14610084578063791b98bc146100b5578063f70963ba146100d3575b600080fd5b61006b600480360381019061006691906114e5565b610104565b60405161007b9493929190611558565b60405180910390f35b61009e600480360381019061009991906115c9565b61035f565b6040516100ac92919061164c565b60405180910390f35b6100bd61090b565b6040516100ca91906116d4565b60405180910390f35b6100ed60048036038101906100e891906116ef565b61092f565b6040516100fb92919061164c565b60405180910390f35b600080600080600085905060008173ffffffffffffffffffffffffffffffffffffffff16630dfe16816040518163ffffffff1660e01b8152600401602060405180830381865afa15801561015c573d6000803e3d6000fd5b505050506040513d601f19601f82011682018060405250810190610180919061176b565b905060008273ffffffffffffffffffffffffffffffffffffffff1663d21220a76040518163ffffffff1660e01b8152600401602060405180830381865afa1580156101cf573d6000803e3d6000fd5b505050506040513d601f19601f820116820180604052508101906101f3919061176b565b905060008373ffffffffffffffffffffffffffffffffffffffff1663ddca3f436040518163ffffffff1660e01b8152600401602060405180830381865afa158015610242573d6000803e3d6000fd5b505050506040513d601f19601f8201168201806040525081019061026691906117c4565b905060008473ffffffffffffffffffffffffffffffffffffffff16633850c7bd6040518163ffffffff1660e01b815260040160e060405180830381865afa1580156102b5573d6000803e3d6000fd5b505050506040513d601f19601f820116820180604052508101906102d991906118f4565b505050505050905060007801000000000000000000000000000000000000000000000000828361030991906119c5565b73ffffffffffffffffffffffffffffffffffffffff166103299190611a5b565b78ffffffffffffffffffffffffffffffffffffffffffffffffff1690508484848399509950995099505050505050509193509193565b600080600085036103a5576040517f08c379a000000000000000000000000000000000000000000000000000000000815260040161039c90611b0f565b60405180910390fd5b600084036103e8576040517f08c379a00000000000000000000000000000000000000000000000000000000081526004016103df90611ba1565b60405180910390fd5b6000830361042b576040517f08c379a000000000000000000000000000000000000000000000000000000000815260040161042290611c33565b60405180910390fd5b60008060008061043a8a610104565b93509350935093506000899050600089905060008061045b858c868661092f565b915091508773ffffffffffffffffffffffffffffffffffffffff166323b872dd3330876040518463ffffffff1660e01b815260040161049c93929190611c53565b6020604051808303816000875af11580156104bb573d6000803e3d6000fd5b505050506040513d601f19601f820116820180604052508101906104df9190611c8a565b508673ffffffffffffffffffffffffffffffffffffffff166323b872dd3330866040518463ffffffff1660e01b815260040161051d93929190611c53565b6020604051808303816000875af115801561053c573d6000803e3d6000fd5b505050506040513d601f19601f820116820180604052508101906105609190611c8a565b508773ffffffffffffffffffffffffffffffffffffffff1663095ea7b360008054906101000a900473ffffffffffffffffffffffffffffffffffffffff16866040518363ffffffff1660e01b81526004016105bc929190611cb7565b6020604051808303816000875af11580156105db573d6000803e3d6000fd5b505050506040513d601f19601f820116820180604052508101906105ff9190611c8a565b508673ffffffffffffffffffffffffffffffffffffffff1663095ea7b360008054906101000a900473ffffffffffffffffffffffffffffffffffffffff16856040518363ffffffff1660e01b815260040161065b929190611cb7565b6020604051808303816000875af115801561067a573d6000803e3d6000fd5b505050506040513d601f19601f8201168201806040525081019061069e9190611c8a565b5060008060008054906101000a900473ffffffffffffffffffffffffffffffffffffffff1673ffffffffffffffffffffffffffffffffffffffff1663883164566040518061016001604052808d73ffffffffffffffffffffffffffffffffffffffff1681526020018c73ffffffffffffffffffffffffffffffffffffffff1681526020018b62ffffff1681526020018760020b81526020018660020b815260200189815260200188815260200160008152602001600081526020013373ffffffffffffffffffffffffffffffffffffffff168152602001428152506040518263ffffffff1660e01b81526004016107959190611dfd565b6080604051808303816000875af11580156107b4573d6000803e3d6000fd5b505050506040513d601f19601f820116820180604052508101906107d89190611e76565b9350935050508973ffffffffffffffffffffffffffffffffffffffff1663a9059cbb3384896108079190611edd565b6040518363ffffffff1660e01b8152600401610824929190611cb7565b6020604051808303816000875af1158015610843573d6000803e3d6000fd5b505050506040513d601f19601f820116820180604052508101906108679190611c8a565b508873ffffffffffffffffffffffffffffffffffffffff1663a9059cbb3383886108919190611edd565b6040518363ffffffff1660e01b81526004016108ae929190611cb7565b6020604051808303816000875af11580156108cd573d6000803e3d6000fd5b505050506040513d601f19601f820116820180604052508101906108f19190611c8a565b5083839b509b505050505050505050505094509492505050565b60008054906101000a900473ffffffffffffffffffffffffffffffffffffffff1681565b60008060008061094188888888610982565b91509150600061095083610b81565b9050600061095d83610b81565b905061096882610bad565b955061097381610bad565b94505050505094509492505050565b60008060006109ab6002876109979190612044565b6305f5e1006109a69190611edd565b610fac565b87858760046109ba919061208f565b6109c4919061208f565b6109ce919061208f565b6109d8919061208f565b6002856109e59190612044565b85878a60026109f4919061208f565b6109fe919061208f565b610a08919061208f565b6002888b610a16919061208f565b610a209190612044565b610a2a9190611edd565b610a3491906120d1565b61271088610a4291906120d1565b610a4c919061208f565b610a5691906120d1565b90506000610a7b87612710610a6b9190611edd565b89610a76919061208f565b610fac565b866002610a88919061208f565b610a92919061208f565b610a9b83610fac565b86888b610aa8919061208f565b610ab29190611edd565b610ac86127108b610ac391906120d1565b610fac565b610ad2919061208f565b610adc91906120d1565b610ae69190612105565b9050600086610af48a610fac565b610afe919061208f565b86610b099190612105565b610b128a610fac565b8884610b1e919061208f565b88610b299190612105565b610b3391906120d1565b610b3d9190611edd565b90506c0100000000000000000000000081610b58919061208f565b94506c0100000000000000000000000082610b73919061208f565b935050505094509492505050565b6000818291508173ffffffffffffffffffffffffffffffffffffffff1614610ba857600080fd5b919050565b60006401000276a373ffffffffffffffffffffffffffffffffffffffff168273ffffffffffffffffffffffffffffffffffffffff1610158015610c2f575073fffd8963efd1fc6a506488495d951d5263988d2673ffffffffffffffffffffffffffffffffffffffff168273ffffffffffffffffffffffffffffffffffffffff16105b610c6e576040517f08c379a0000000000000000000000000000000000000000000000000000000008152600401610c6590612182565b60405180910390fd5b600060208373ffffffffffffffffffffffffffffffffffffffff16901b9050600081905060006fffffffffffffffffffffffffffffffff821160071b808217915082811c92505067ffffffffffffffff821160061b808217915082811c92505063ffffffff821160051b808217915082811c92505061ffff821160041b808217915082811c92505060ff821160031b808217915082811c925050600f821160021b808217915082811c9250506003821160011b808217915082811c9250506001821180821791505060808110610d5557607f81610d4b9190611edd565b83901c9150610d68565b80607f610d629190611edd565b83901b91505b60006040608083610d7991906121ac565b901b9050828302607f1c92508260801c80603f1b8217915083811c935050828302607f1c92508260801c80603e1b8217915083811c935050828302607f1c92508260801c80603d1b8217915083811c935050828302607f1c92508260801c80603c1b8217915083811c935050828302607f1c92508260801c80603b1b8217915083811c935050828302607f1c92508260801c80603a1b8217915083811c935050828302607f1c92508260801c8060391b8217915083811c935050828302607f1c92508260801c8060381b8217915083811c935050828302607f1c92508260801c8060371b8217915083811c935050828302607f1c92508260801c8060361b8217915083811c935050828302607f1c92508260801c8060351b8217915083811c935050828302607f1c92508260801c8060341b8217915083811c935050828302607f1c92508260801c8060331b8217915083811c935050828302607f1c92508260801c8060321b82179150506000693627a301d71055774c8582610efc91906121ef565b9050600060806f028f6481ab7f045a5af012a19d003aaa83610f1e91906121ac565b901d9050600060806fdb2df09e81959a81455e260799a0632f84610f429190612267565b901d90508060020b8260020b14610f9c578873ffffffffffffffffffffffffffffffffffffffff16610f7382611026565b73ffffffffffffffffffffffffffffffffffffffff161115610f955781610f97565b805b610f9e565b815b975050505050505050919050565b600060038211156110135781905060006001600284610fcb9190612105565b610fd591906120d1565b90505b8181101561100d578091506002818285610ff29190612105565b610ffc91906120d1565b6110069190612105565b9050610fd8565b50611021565b6000821461102057600190505b5b919050565b60008060008360020b1261103d578260020b61104b565b8260020b61104a906122ab565b5b9050600080600183160361107057700100000000000000000000000000000000611082565b6ffffcb933bd6fad37aa2d162d1a5940015b70ffffffffffffffffffffffffffffffffff169050600060028316146110c55760806ffff97272373d413259a46990580e213a826110c0919061208f565b901c90505b600060048316146110f35760806ffff2e50f5f656932ef12357cf3c7fdcc826110ee919061208f565b901c90505b600060088316146111215760806fffe5caca7e10e4e61c3624eaa0941cd08261111c919061208f565b901c90505b6000601083161461114f5760806fffcb9843d60f6159c9db58835c9266448261114a919061208f565b901c90505b6000602083161461117d5760806fff973b41fa98c081472e6896dfb254c082611178919061208f565b901c90505b600060408316146111ab5760806fff2ea16466c96a3843ec78b326b52861826111a6919061208f565b901c90505b600060808316146111d95760806ffe5dee046a99a2a811c461f1969c3053826111d4919061208f565b901c90505b60006101008316146112085760806ffcbe86c7900a88aedcffc83b479aa3a482611203919061208f565b901c90505b60006102008316146112375760806ff987a7253ac413176f2b074cf7815e5482611232919061208f565b901c90505b60006104008316146112665760806ff3392b0822b70005940c7a398e4b70f382611261919061208f565b901c90505b60006108008316146112955760806fe7159475a2c29b7443b29c7fa6e889d982611290919061208f565b901c90505b60006110008316146112c45760806fd097f3bdfd2022b8845ad8f792aa5825826112bf919061208f565b901c90505b60006120008316146112f35760806fa9f746462d870fdf8a65dc1f90e061e5826112ee919061208f565b901c90505b60006140008316146113225760806f70d869a156d2a1b890bb3df62baf32f78261131d919061208f565b901c90505b60006180008316146113515760806f31be135f97d08fd981231505542fcfa68261134c919061208f565b901c90505b6000620100008316146113815760806f09aa508b5b7a84e1c677de54f3e99bc98261137c919061208f565b901c90505b6000620200008316146113b05760806e5d6af8dedb81196699c329225ee604826113ab919061208f565b901c90505b6000620400008316146113de5760806d2216e584f5fa1ea926041bedfe98826113d9919061208f565b901c90505b60006208000083161461140a5760806b048a170391f7dc42444e8fa282611405919061208f565b901c90505b60008460020b131561144557807fffffffffffffffffffffffffffffffffffffffffffffffffffffffffffffffff6114429190612105565b90505b60006401000000008261145891906122f3565b14611464576001611467565b60005b60ff16602082901c61147991906120d1565b92505050919050565b600080fd5b600073ffffffffffffffffffffffffffffffffffffffff82169050919050565b60006114b282611487565b9050919050565b6114c2816114a7565b81146114cd57600080fd5b50565b6000813590506114df816114b9565b92915050565b6000602082840312156114fb576114fa611482565b5b6000611509848285016114d0565b91505092915050565b61151b816114a7565b82525050565b600062ffffff82169050919050565b61153981611521565b82525050565b6000819050919050565b6115528161153f565b82525050565b600060808201905061156d6000830187611512565b61157a6020830186611512565b6115876040830185611530565b6115946060830184611549565b95945050505050565b6115a68161153f565b81146115b157600080fd5b50565b6000813590506115c38161159d565b92915050565b600080600080608085870312156115e3576115e2611482565b5b60006115f1878288016114d0565b9450506020611602878288016115b4565b9350506040611613878288016115b4565b9250506060611624878288016115b4565b91505092959194509250565b60008160020b9050919050565b61164681611630565b82525050565b6000604082019050611661600083018561163d565b61166e602083018461163d565b9392505050565b6000819050919050565b600061169a61169561169084611487565b611675565b611487565b9050919050565b60006116ac8261167f565b9050919050565b60006116be826116a1565b9050919050565b6116ce816116b3565b82525050565b60006020820190506116e960008301846116c5565b92915050565b6000806000806080858703121561170957611708611482565b5b6000611717878288016115b4565b9450506020611728878288016115b4565b9350506040611739878288016115b4565b925050606061174a878288016115b4565b91505092959194509250565b600081519050611765816114b9565b92915050565b60006020828403121561178157611780611482565b5b600061178f84828501611756565b91505092915050565b6117a181611521565b81146117ac57600080fd5b50565b6000815190506117be81611798565b92915050565b6000602082840312156117da576117d9611482565b5b60006117e8848285016117af565b91505092915050565b6117fa81611487565b811461180557600080fd5b50565b600081519050611817816117f1565b92915050565b61182681611630565b811461183157600080fd5b50565b6000815190506118438161181d565b92915050565b600061ffff82169050919050565b61186081611849565b811461186b57600080fd5b50565b60008151905061187d81611857565b92915050565b600060ff82169050919050565b61189981611883565b81146118a457600080fd5b50565b6000815190506118b681611890565b92915050565b60008115159050919050565b6118d1816118bc565b81146118dc57600080fd5b50565b6000815190506118ee816118c8565b92915050565b600080600080600080600060e0888a03121561191357611912611482565b5b60006119218a828b01611808565b97505060206119328a828b01611834565b96505060406119438a828b0161186e565b95505060606119548a828b0161186e565b94505060806119658a828b0161186e565b93505060a06119768a828b016118a7565b92505060c06119878a828b016118df565b91505092959891949750929550565b7f4e487b7100000000000000000000000000000000000000000000000000000000600052601160045260246000fd5b60006119d082611487565b91506119db83611487565b92508282026119e981611487565b91508282048414831517611a00576119ff611996565b5b5092915050565b600078ffffffffffffffffffffffffffffffffffffffffffffffffff82169050919050565b7f4e487b7100000000000000000000000000000000000000000000000000000000600052601260045260246000fd5b6000611a6682611a07565b9150611a7183611a07565b925082611a8157611a80611a2c565b5b828204905092915050565b600082825260208201905092915050565b7f43616e6e6f7420616464203020616d6f756e74206f6620666972737420746f6b60008201527f656e000000000000000000000000000000000000000000000000000000000000602082015250565b6000611af9602283611a8c565b9150611b0482611a9d565b604082019050919050565b60006020820190508181036000830152611b2881611aec565b9050919050565b7f43616e6e6f7420616464203020616d6f756e74206f66207365636f6e6420746f60008201527f6b656e0000000000000000000000000000000000000000000000000000000000602082015250565b6000611b8b602383611a8c565b9150611b9682611b2f565b604082019050919050565b60006020820190508181036000830152611bba81611b7e565b9050919050565b7f43616e6e6f7420616464206c697175696469747920776974682030207769647460008201527f6800000000000000000000000000000000000000000000000000000000000000602082015250565b6000611c1d602183611a8c565b9150611c2882611bc1565b604082019050919050565b60006020820190508181036000830152611c4c81611c10565b9050919050565b6000606082019050611c686000830186611512565b611c756020830185611512565b611c826040830184611549565b949350505050565b600060208284031215611ca057611c9f611482565b5b6000611cae848285016118df565b91505092915050565b6000604082019050611ccc6000830185611512565b611cd96020830184611549565b9392505050565b611ce9816114a7565b82525050565b611cf881611521565b82525050565b611d0781611630565b82525050565b611d168161153f565b82525050565b61016082016000820151611d336000850182611ce0565b506020820151611d466020850182611ce0565b506040820151611d596040850182611cef565b506060820151611d6c6060850182611cfe565b506080820151611d7f6080850182611cfe565b5060a0820151611d9260a0850182611d0d565b5060c0820151611da560c0850182611d0d565b5060e0820151611db860e0850182611d0d565b50610100820151611dcd610100850182611d0d565b50610120820151611de2610120850182611ce0565b50610140820151611df7610140850182611d0d565b50505050565b600061016082019050611e136000830184611d1c565b92915050565b600081519050611e288161159d565b92915050565b60006fffffffffffffffffffffffffffffffff82169050919050565b611e5381611e2e565b8114611e5e57600080fd5b50565b600081519050611e7081611e4a565b92915050565b60008060008060808587031215611e9057611e8f611482565b5b6000611e9e87828801611e19565b9450506020611eaf87828801611e61565b9350506040611ec087828801611e19565b9250506060611ed187828801611e19565b91505092959194509250565b6000611ee88261153f565b9150611ef38361153f565b9250828203905081811115611f0b57611f0a611996565b5b92915050565b60008160011c9050919050565b6000808291508390505b6001851115611f6857808604811115611f4457611f43611996565b5b6001851615611f535780820291505b8081029050611f6185611f11565b9450611f28565b94509492505050565b600082611f81576001905061203d565b81611f8f576000905061203d565b8160018114611fa55760028114611faf57611fde565b600191505061203d565b60ff841115611fc157611fc0611996565b5b8360020a915084821115611fd857611fd7611996565b5b5061203d565b5060208310610133831016604e8410600b84101617156120135782820a90508381111561200e5761200d611996565b5b61203d565b6120208484846001611f1e565b9250905081840481111561203757612036611996565b5b81810290505b9392505050565b600061204f8261153f565b915061205a83611883565b92506120877fffffffffffffffffffffffffffffffffffffffffffffffffffffffffffffffff8484611f71565b905092915050565b600061209a8261153f565b91506120a58361153f565b92508282026120b38161153f565b915082820484148315176120ca576120c9611996565b5b5092915050565b60006120dc8261153f565b91506120e78361153f565b92508282019050808211156120ff576120fe611996565b5b92915050565b60006121108261153f565b915061211b8361153f565b92508261212b5761212a611a2c565b5b828204905092915050565b7f5200000000000000000000000000000000000000000000000000000000000000600082015250565b600061216c600183611a8c565b915061217782612136565b602082019050919050565b6000602082019050818103600083015261219b8161215f565b9050919050565b6000819050919050565b60006121b7826121a2565b91506121c2836121a2565b92508282039050818112600084121682821360008512151617156121e9576121e8611996565b5b92915050565b60006121fa826121a2565b9150612205836121a2565b9250828202612213816121a2565b91507f8000000000000000000000000000000000000000000000000000000000000000841460008412161561224b5761224a611996565b5b82820584148315176122605761225f611996565b5b5092915050565b6000612272826121a2565b915061227d836121a2565b9250828201905082811215600083121683821260008412151617156122a5576122a4611996565b5b92915050565b60006122b6826121a2565b91507f800000000000000000000000000000000000000000000000000000000000000082036122e8576122e7611996565b5b816000039050919050565b60006122fe8261153f565b91506123098361153f565b92508261231957612318611a2c565b5b82820690509291505056fea2646970667358221220788c080d8a044205f20530c6529d8fd84afb4fd730455e9e07a1cc14cf27d8f164736f6c634300081b0033",
          "opcodes": "PUSH1 0x80 PUSH1 0x40 MSTORE CALLVALUE DUP1 ISZERO PUSH2 0x10 JUMPI PUSH1 0x0 DUP1 REVERT JUMPDEST POP PUSH1 0x40 MLOAD PUSH2 0x2471 CODESIZE SUB DUP1 PUSH2 0x2471 DUP4 CODECOPY DUP2 DUP2 ADD PUSH1 0x40 MSTORE DUP2 ADD SWAP1 PUSH2 0x32 SWAP2 SWAP1 PUSH2 0xDB JUMP JUMPDEST DUP1 PUSH1 0x0 DUP1 PUSH2 0x100 EXP DUP2 SLOAD DUP2 PUSH20 0xFFFFFFFFFFFFFFFFFFFFFFFFFFFFFFFFFFFFFFFF MUL NOT AND SWAP1 DUP4 PUSH20 0xFFFFFFFFFFFFFFFFFFFFFFFFFFFFFFFFFFFFFFFF AND MUL OR SWAP1 SSTORE POP POP PUSH2 0x108 JUMP JUMPDEST PUSH1 0x0 DUP1 REVERT JUMPDEST PUSH1 0x0 PUSH20 0xFFFFFFFFFFFFFFFFFFFFFFFFFFFFFFFFFFFFFFFF DUP3 AND SWAP1 POP SWAP2 SWAP1 POP JUMP JUMPDEST PUSH1 0x0 PUSH2 0xA8 DUP3 PUSH2 0x7D JUMP JUMPDEST SWAP1 POP SWAP2 SWAP1 POP JUMP JUMPDEST PUSH2 0xB8 DUP2 PUSH2 0x9D JUMP JUMPDEST DUP2 EQ PUSH2 0xC3 JUMPI PUSH1 0x0 DUP1 REVERT JUMPDEST POP JUMP JUMPDEST PUSH1 0x0 DUP2 MLOAD SWAP1 POP PUSH2 0xD5 DUP2 PUSH2 0xAF JUMP JUMPDEST SWAP3 SWAP2 POP POP JUMP JUMPDEST PUSH1 0x0 PUSH1 0x20 DUP3 DUP5 SUB SLT ISZERO PUSH2 0xF1 JUMPI PUSH2 0xF0 PUSH2 0x78 JUMP JUMPDEST JUMPDEST PUSH1 0x0 PUSH2 0xFF DUP5 DUP3 DUP6 ADD PUSH2 0xC6 JUMP JUMPDEST SWAP2 POP POP SWAP3 SWAP2 POP POP JUMP JUMPDEST PUSH2 0x235A DUP1 PUSH2 0x117 PUSH1 0x0 CODECOPY PUSH1 0x0 RETURN INVALID PUSH1 0x80 PUSH1 0x40 MSTORE CALLVALUE DUP1 ISZERO PUSH2 0x10 JUMPI PUSH1 0x0 DUP1 REVERT JUMPDEST POP PUSH1 0x4 CALLDATASIZE LT PUSH2 0x4C JUMPI PUSH1 0x0 CALLDATALOAD PUSH1 0xE0 SHR DUP1 PUSH4 0x6BFA938 EQ PUSH2 0x51 JUMPI DUP1 PUSH4 0x1ECE366A EQ PUSH2 0x84 JUMPI DUP1 PUSH4 0x791B98BC EQ PUSH2 0xB5 JUMPI DUP1 PUSH4 0xF70963BA EQ PUSH2 0xD3 JUMPI JUMPDEST PUSH1 0x0 DUP1 REVERT JUMPDEST PUSH2 0x6B PUSH1 0x4 DUP1 CALLDATASIZE SUB DUP2 ADD SWAP1 PUSH2 0x66 SWAP2 SWAP1 PUSH2 0x14E5 JUMP JUMPDEST PUSH2 0x104 JUMP JUMPDEST PUSH1 0x40 MLOAD PUSH2 0x7B SWAP5 SWAP4 SWAP3 SWAP2 SWAP1 PUSH2 0x1558 JUMP JUMPDEST PUSH1 0x40 MLOAD DUP1 SWAP2 SUB SWAP1 RETURN JUMPDEST PUSH2 0x9E PUSH1 0x4 DUP1 CALLDATASIZE SUB DUP2 ADD SWAP1 PUSH2 0x99 SWAP2 SWAP1 PUSH2 0x15C9 JUMP JUMPDEST PUSH2 0x35F JUMP JUMPDEST PUSH1 0x40 MLOAD PUSH2 0xAC SWAP3 SWAP2 SWAP1 PUSH2 0x164C JUMP JUMPDEST PUSH1 0x40 MLOAD DUP1 SWAP2 SUB SWAP1 RETURN JUMPDEST PUSH2 0xBD PUSH2 0x90B JUMP JUMPDEST PUSH1 0x40 MLOAD PUSH2 0xCA SWAP2 SWAP1 PUSH2 0x16D4 JUMP JUMPDEST PUSH1 0x40 MLOAD DUP1 SWAP2 SUB SWAP1 RETURN JUMPDEST PUSH2 0xED PUSH1 0x4 DUP1 CALLDATASIZE SUB DUP2 ADD SWAP1 PUSH2 0xE8 SWAP2 SWAP1 PUSH2 0x16EF JUMP JUMPDEST PUSH2 0x92F JUMP JUMPDEST PUSH1 0x40 MLOAD PUSH2 0xFB SWAP3 SWAP2 SWAP1 PUSH2 0x164C JUMP JUMPDEST PUSH1 0x40 MLOAD DUP1 SWAP2 SUB SWAP1 RETURN JUMPDEST PUSH1 0x0 DUP1 PUSH1 0x0 DUP1 PUSH1 0x0 DUP6 SWAP1 POP PUSH1 0x0 DUP2 PUSH20 0xFFFFFFFFFFFFFFFFFFFFFFFFFFFFFFFFFFFFFFFF AND PUSH4 0xDFE1681 PUSH1 0x40 MLOAD DUP2 PUSH4 0xFFFFFFFF AND PUSH1 0xE0 SHL DUP2 MSTORE PUSH1 0x4 ADD PUSH1 0x20 PUSH1 0x40 MLOAD DUP1 DUP4 SUB DUP2 DUP7 GAS STATICCALL ISZERO DUP1 ISZERO PUSH2 0x15C JUMPI RETURNDATASIZE PUSH1 0x0 DUP1 RETURNDATACOPY RETURNDATASIZE PUSH1 0x0 REVERT JUMPDEST POP POP POP POP PUSH1 0x40 MLOAD RETURNDATASIZE PUSH1 0x1F NOT PUSH1 0x1F DUP3 ADD AND DUP3 ADD DUP1 PUSH1 0x40 MSTORE POP DUP2 ADD SWAP1 PUSH2 0x180 SWAP2 SWAP1 PUSH2 0x176B JUMP JUMPDEST SWAP1 POP PUSH1 0x0 DUP3 PUSH20 0xFFFFFFFFFFFFFFFFFFFFFFFFFFFFFFFFFFFFFFFF AND PUSH4 0xD21220A7 PUSH1 0x40 MLOAD DUP2 PUSH4 0xFFFFFFFF AND PUSH1 0xE0 SHL DUP2 MSTORE PUSH1 0x4 ADD PUSH1 0x20 PUSH1 0x40 MLOAD DUP1 DUP4 SUB DUP2 DUP7 GAS STATICCALL ISZERO DUP1 ISZERO PUSH2 0x1CF JUMPI RETURNDATASIZE PUSH1 0x0 DUP1 RETURNDATACOPY RETURNDATASIZE PUSH1 0x0 REVERT JUMPDEST POP POP POP POP PUSH1 0x40 MLOAD RETURNDATASIZE PUSH1 0x1F NOT PUSH1 0x1F DUP3 ADD AND DUP3 ADD DUP1 PUSH1 0x40 MSTORE POP DUP2 ADD SWAP1 PUSH2 0x1F3 SWAP2 SWAP1 PUSH2 0x176B JUMP JUMPDEST SWAP1 POP PUSH1 0x0 DUP4 PUSH20 0xFFFFFFFFFFFFFFFFFFFFFFFFFFFFFFFFFFFFFFFF AND PUSH4 0xDDCA3F43 PUSH1 0x40 MLOAD DUP2 PUSH4 0xFFFFFFFF AND PUSH1 0xE0 SHL DUP2 MSTORE PUSH1 0x4 ADD PUSH1 0x20 PUSH1 0x40 MLOAD DUP1 DUP4 SUB DUP2 DUP7 GAS STATICCALL ISZERO DUP1 ISZERO PUSH2 0x242 JUMPI RETURNDATASIZE PUSH1 0x0 DUP1 RETURNDATACOPY RETURNDATASIZE PUSH1 0x0 REVERT JUMPDEST POP POP POP POP PUSH1 0x40 MLOAD RETURNDATASIZE PUSH1 0x1F NOT PUSH1 0x1F DUP3 ADD AND DUP3 ADD DUP1 PUSH1 0x40 MSTORE POP DUP2 ADD SWAP1 PUSH2 0x266 SWAP2 SWAP1 PUSH2 0x17C4 JUMP JUMPDEST SWAP1 POP PUSH1 0x0 DUP5 PUSH20 0xFFFFFFFFFFFFFFFFFFFFFFFFFFFFFFFFFFFFFFFF AND PUSH4 0x3850C7BD PUSH1 0x40 MLOAD DUP2 PUSH4 0xFFFFFFFF AND PUSH1 0xE0 SHL DUP2 MSTORE PUSH1 0x4 ADD PUSH1 0xE0 PUSH1 0x40 MLOAD DUP1 DUP4 SUB DUP2 DUP7 GAS STATICCALL ISZERO DUP1 ISZERO PUSH2 0x2B5 JUMPI RETURNDATASIZE PUSH1 0x0 DUP1 RETURNDATACOPY RETURNDATASIZE PUSH1 0x0 REVERT JUMPDEST POP POP POP POP PUSH1 0x40 MLOAD RETURNDATASIZE PUSH1 0x1F NOT PUSH1 0x1F DUP3 ADD AND DUP3 ADD DUP1 PUSH1 0x40 MSTORE POP DUP2 ADD SWAP1 PUSH2 0x2D9 SWAP2 SWAP1 PUSH2 0x18F4 JUMP JUMPDEST POP POP POP POP POP POP SWAP1 POP PUSH1 0x0 PUSH25 0x1000000000000000000000000000000000000000000000000 DUP3 DUP4 PUSH2 0x309 SWAP2 SWAP1 PUSH2 0x19C5 JUMP JUMPDEST PUSH20 0xFFFFFFFFFFFFFFFFFFFFFFFFFFFFFFFFFFFFFFFF AND PUSH2 0x329 SWAP2 SWAP1 PUSH2 0x1A5B JUMP JUMPDEST PUSH25 0xFFFFFFFFFFFFFFFFFFFFFFFFFFFFFFFFFFFFFFFFFFFFFFFFFF AND SWAP1 POP DUP5 DUP5 DUP5 DUP4 SWAP10 POP SWAP10 POP SWAP10 POP SWAP10 POP POP POP POP POP POP POP SWAP2 SWAP4 POP SWAP2 SWAP4 JUMP JUMPDEST PUSH1 0x0 DUP1 PUSH1 0x0 DUP6 SUB PUSH2 0x3A5 JUMPI PUSH1 0x40 MLOAD PUSH32 0x8C379A000000000000000000000000000000000000000000000000000000000 DUP2 MSTORE PUSH1 0x4 ADD PUSH2 0x39C SWAP1 PUSH2 0x1B0F JUMP JUMPDEST PUSH1 0x40 MLOAD DUP1 SWAP2 SUB SWAP1 REVERT JUMPDEST PUSH1 0x0 DUP5 SUB PUSH2 0x3E8 JUMPI PUSH1 0x40 MLOAD PUSH32 0x8C379A000000000000000000000000000000000000000000000000000000000 DUP2 MSTORE PUSH1 0x4 ADD PUSH2 0x3DF SWAP1 PUSH2 0x1BA1 JUMP JUMPDEST PUSH1 0x40 MLOAD DUP1 SWAP2 SUB SWAP1 REVERT JUMPDEST PUSH1 0x0 DUP4 SUB PUSH2 0x42B JUMPI PUSH1 0x40 MLOAD PUSH32 0x8C379A000000000000000000000000000000000000000000000000000000000 DUP2 MSTORE PUSH1 0x4 ADD PUSH2 0x422 SWAP1 PUSH2 0x1C33 JUMP JUMPDEST PUSH1 0x40 MLOAD DUP1 SWAP2 SUB SWAP1 REVERT JUMPDEST PUSH1 0x0 DUP1 PUSH1 0x0 DUP1 PUSH2 0x43A DUP11 PUSH2 0x104 JUMP JUMPDEST SWAP4 POP SWAP4 POP SWAP4 POP SWAP4 POP PUSH1 0x0 DUP10 SWAP1 POP PUSH1 0x0 DUP10 SWAP1 POP PUSH1 0x0 DUP1 PUSH2 0x45B DUP6 DUP13 DUP7 DUP7 PUSH2 0x92F JUMP JUMPDEST SWAP2 POP SWAP2 POP DUP8 PUSH20 0xFFFFFFFFFFFFFFFFFFFFFFFFFFFFFFFFFFFFFFFF AND PUSH4 0x23B872DD CALLER ADDRESS DUP8 PUSH1 0x40 MLOAD DUP5 PUSH4 0xFFFFFFFF AND PUSH1 0xE0 SHL DUP2 MSTORE PUSH1 0x4 ADD PUSH2 0x49C SWAP4 SWAP3 SWAP2 SWAP1 PUSH2 0x1C53 JUMP JUMPDEST PUSH1 0x20 PUSH1 0x40 MLOAD DUP1 DUP4 SUB DUP2 PUSH1 0x0 DUP8 GAS CALL ISZERO DUP1 ISZERO PUSH2 0x4BB JUMPI RETURNDATASIZE PUSH1 0x0 DUP1 RETURNDATACOPY RETURNDATASIZE PUSH1 0x0 REVERT JUMPDEST POP POP POP POP PUSH1 0x40 MLOAD RETURNDATASIZE PUSH1 0x1F NOT PUSH1 0x1F DUP3 ADD AND DUP3 ADD DUP1 PUSH1 0x40 MSTORE POP DUP2 ADD SWAP1 PUSH2 0x4DF SWAP2 SWAP1 PUSH2 0x1C8A JUMP JUMPDEST POP DUP7 PUSH20 0xFFFFFFFFFFFFFFFFFFFFFFFFFFFFFFFFFFFFFFFF AND PUSH4 0x23B872DD CALLER ADDRESS DUP7 PUSH1 0x40 MLOAD DUP5 PUSH4 0xFFFFFFFF AND PUSH1 0xE0 SHL DUP2 MSTORE PUSH1 0x4 ADD PUSH2 0x51D SWAP4 SWAP3 SWAP2 SWAP1 PUSH2 0x1C53 JUMP JUMPDEST PUSH1 0x20 PUSH1 0x40 MLOAD DUP1 DUP4 SUB DUP2 PUSH1 0x0 DUP8 GAS CALL ISZERO DUP1 ISZERO PUSH2 0x53C JUMPI RETURNDATASIZE PUSH1 0x0 DUP1 RETURNDATACOPY RETURNDATASIZE PUSH1 0x0 REVERT JUMPDEST POP POP POP POP PUSH1 0x40 MLOAD RETURNDATASIZE PUSH1 0x1F NOT PUSH1 0x1F DUP3 ADD AND DUP3 ADD DUP1 PUSH1 0x40 MSTORE POP DUP2 ADD SWAP1 PUSH2 0x560 SWAP2 SWAP1 PUSH2 0x1C8A JUMP JUMPDEST POP DUP8 PUSH20 0xFFFFFFFFFFFFFFFFFFFFFFFFFFFFFFFFFFFFFFFF AND PUSH4 0x95EA7B3 PUSH1 0x0 DUP1 SLOAD SWAP1 PUSH2 0x100 EXP SWAP1 DIV PUSH20 0xFFFFFFFFFFFFFFFFFFFFFFFFFFFFFFFFFFFFFFFF AND DUP7 PUSH1 0x40 MLOAD DUP4 PUSH4 0xFFFFFFFF AND PUSH1 0xE0 SHL DUP2 MSTORE PUSH1 0x4 ADD PUSH2 0x5BC SWAP3 SWAP2 SWAP1 PUSH2 0x1CB7 JUMP JUMPDEST PUSH1 0x20 PUSH1 0x40 MLOAD DUP1 DUP4 SUB DUP2 PUSH1 0x0 DUP8 GAS CALL ISZERO DUP1 ISZERO PUSH2 0x5DB JUMPI RETURNDATASIZE PUSH1 0x0 DUP1 RETURNDATACOPY RETURNDATASIZE PUSH1 0x0 REVERT JUMPDEST POP POP POP POP PUSH1 0x40 MLOAD RETURNDATASIZE PUSH1 0x1F NOT PUSH1 0x1F DUP3 ADD AND DUP3 ADD DUP1 PUSH1 0x40 MSTORE POP DUP2 ADD SWAP1 PUSH2 0x5FF SWAP2 SWAP1 PUSH2 0x1C8A JUMP JUMPDEST POP DUP7 PUSH20 0xFFFFFFFFFFFFFFFFFFFFFFFFFFFFFFFFFFFFFFFF AND PUSH4 0x95EA7B3 PUSH1 0x0 DUP1 SLOAD SWAP1 PUSH2 0x100 EXP SWAP1 DIV PUSH20 0xFFFFFFFFFFFFFFFFFFFFFFFFFFFFFFFFFFFFFFFF AND DUP6 PUSH1 0x40 MLOAD DUP4 PUSH4 0xFFFFFFFF AND PUSH1 0xE0 SHL DUP2 MSTORE PUSH1 0x4 ADD PUSH2 0x65B SWAP3 SWAP2 SWAP1 PUSH2 0x1CB7 JUMP JUMPDEST PUSH1 0x20 PUSH1 0x40 MLOAD DUP1 DUP4 SUB DUP2 PUSH1 0x0 DUP8 GAS CALL ISZERO DUP1 ISZERO PUSH2 0x67A JUMPI RETURNDATASIZE PUSH1 0x0 DUP1 RETURNDATACOPY RETURNDATASIZE PUSH1 0x0 REVERT JUMPDEST POP POP POP POP PUSH1 0x40 MLOAD RETURNDATASIZE PUSH1 0x1F NOT PUSH1 0x1F DUP3 ADD AND DUP3 ADD DUP1 PUSH1 0x40 MSTORE POP DUP2 ADD SWAP1 PUSH2 0x69E SWAP2 SWAP1 PUSH2 0x1C8A JUMP JUMPDEST POP PUSH1 0x0 DUP1 PUSH1 0x0 DUP1 SLOAD SWAP1 PUSH2 0x100 EXP SWAP1 DIV PUSH20 0xFFFFFFFFFFFFFFFFFFFFFFFFFFFFFFFFFFFFFFFF AND PUSH20 0xFFFFFFFFFFFFFFFFFFFFFFFFFFFFFFFFFFFFFFFF AND PUSH4 0x88316456 PUSH1 0x40 MLOAD DUP1 PUSH2 0x160 ADD PUSH1 0x40 MSTORE DUP1 DUP14 PUSH20 0xFFFFFFFFFFFFFFFFFFFFFFFFFFFFFFFFFFFFFFFF AND DUP2 MSTORE PUSH1 0x20 ADD DUP13 PUSH20 0xFFFFFFFFFFFFFFFFFFFFFFFFFFFFFFFFFFFFFFFF AND DUP2 MSTORE PUSH1 0x20 ADD DUP12 PUSH3 0xFFFFFF AND DUP2 MSTORE PUSH1 0x20 ADD DUP8 PUSH1 0x2 SIGNEXTEND DUP2 MSTORE PUSH1 0x20 ADD DUP7 PUSH1 0x2 SIGNEXTEND DUP2 MSTORE PUSH1 0x20 ADD DUP10 DUP2 MSTORE PUSH1 0x20 ADD DUP9 DUP2 MSTORE PUSH1 0x20 ADD PUSH1 0x0 DUP2 MSTORE PUSH1 0x20 ADD PUSH1 0x0 DUP2 MSTORE PUSH1 0x20 ADD CALLER PUSH20 0xFFFFFFFFFFFFFFFFFFFFFFFFFFFFFFFFFFFFFFFF AND DUP2 MSTORE PUSH1 0x20 ADD TIMESTAMP DUP2 MSTORE POP PUSH1 0x40 MLOAD DUP3 PUSH4 0xFFFFFFFF AND PUSH1 0xE0 SHL DUP2 MSTORE PUSH1 0x4 ADD PUSH2 0x795 SWAP2 SWAP1 PUSH2 0x1DFD JUMP JUMPDEST PUSH1 0x80 PUSH1 0x40 MLOAD DUP1 DUP4 SUB DUP2 PUSH1 0x0 DUP8 GAS CALL ISZERO DUP1 ISZERO PUSH2 0x7B4 JUMPI RETURNDATASIZE PUSH1 0x0 DUP1 RETURNDATACOPY RETURNDATASIZE PUSH1 0x0 REVERT JUMPDEST POP POP POP POP PUSH1 0x40 MLOAD RETURNDATASIZE PUSH1 0x1F NOT PUSH1 0x1F DUP3 ADD AND DUP3 ADD DUP1 PUSH1 0x40 MSTORE POP DUP2 ADD SWAP1 PUSH2 0x7D8 SWAP2 SWAP1 PUSH2 0x1E76 JUMP JUMPDEST SWAP4 POP SWAP4 POP POP POP DUP10 PUSH20 0xFFFFFFFFFFFFFFFFFFFFFFFFFFFFFFFFFFFFFFFF AND PUSH4 0xA9059CBB CALLER DUP5 DUP10 PUSH2 0x807 SWAP2 SWAP1 PUSH2 0x1EDD JUMP JUMPDEST PUSH1 0x40 MLOAD DUP4 PUSH4 0xFFFFFFFF AND PUSH1 0xE0 SHL DUP2 MSTORE PUSH1 0x4 ADD PUSH2 0x824 SWAP3 SWAP2 SWAP1 PUSH2 0x1CB7 JUMP JUMPDEST PUSH1 0x20 PUSH1 0x40 MLOAD DUP1 DUP4 SUB DUP2 PUSH1 0x0 DUP8 GAS CALL ISZERO DUP1 ISZERO PUSH2 0x843 JUMPI RETURNDATASIZE PUSH1 0x0 DUP1 RETURNDATACOPY RETURNDATASIZE PUSH1 0x0 REVERT JUMPDEST POP POP POP POP PUSH1 0x40 MLOAD RETURNDATASIZE PUSH1 0x1F NOT PUSH1 0x1F DUP3 ADD AND DUP3 ADD DUP1 PUSH1 0x40 MSTORE POP DUP2 ADD SWAP1 PUSH2 0x867 SWAP2 SWAP1 PUSH2 0x1C8A JUMP JUMPDEST POP DUP9 PUSH20 0xFFFFFFFFFFFFFFFFFFFFFFFFFFFFFFFFFFFFFFFF AND PUSH4 0xA9059CBB CALLER DUP4 DUP9 PUSH2 0x891 SWAP2 SWAP1 PUSH2 0x1EDD JUMP JUMPDEST PUSH1 0x40 MLOAD DUP4 PUSH4 0xFFFFFFFF AND PUSH1 0xE0 SHL DUP2 MSTORE PUSH1 0x4 ADD PUSH2 0x8AE SWAP3 SWAP2 SWAP1 PUSH2 0x1CB7 JUMP JUMPDEST PUSH1 0x20 PUSH1 0x40 MLOAD DUP1 DUP4 SUB DUP2 PUSH1 0x0 DUP8 GAS CALL ISZERO DUP1 ISZERO PUSH2 0x8CD JUMPI RETURNDATASIZE PUSH1 0x0 DUP1 RETURNDATACOPY RETURNDATASIZE PUSH1 0x0 REVERT JUMPDEST POP POP POP POP PUSH1 0x40 MLOAD RETURNDATASIZE PUSH1 0x1F NOT PUSH1 0x1F DUP3 ADD AND DUP3 ADD DUP1 PUSH1 0x40 MSTORE POP DUP2 ADD SWAP1 PUSH2 0x8F1 SWAP2 SWAP1 PUSH2 0x1C8A JUMP JUMPDEST POP DUP4 DUP4 SWAP12 POP SWAP12 POP POP POP POP POP POP POP POP POP POP POP SWAP5 POP SWAP5 SWAP3 POP POP POP JUMP JUMPDEST PUSH1 0x0 DUP1 SLOAD SWAP1 PUSH2 0x100 EXP SWAP1 DIV PUSH20 0xFFFFFFFFFFFFFFFFFFFFFFFFFFFFFFFFFFFFFFFF AND DUP2 JUMP JUMPDEST PUSH1 0x0 DUP1 PUSH1 0x0 DUP1 PUSH2 0x941 DUP9 DUP9 DUP9 DUP9 PUSH2 0x982 JUMP JUMPDEST SWAP2 POP SWAP2 POP PUSH1 0x0 PUSH2 0x950 DUP4 PUSH2 0xB81 JUMP JUMPDEST SWAP1 POP PUSH1 0x0 PUSH2 0x95D DUP4 PUSH2 0xB81 JUMP JUMPDEST SWAP1 POP PUSH2 0x968 DUP3 PUSH2 0xBAD JUMP JUMPDEST SWAP6 POP PUSH2 0x973 DUP2 PUSH2 0xBAD JUMP JUMPDEST SWAP5 POP POP POP POP POP SWAP5 POP SWAP5 SWAP3 POP POP POP JUMP JUMPDEST PUSH1 0x0 DUP1 PUSH1 0x0 PUSH2 0x9AB PUSH1 0x2 DUP8 PUSH2 0x997 SWAP2 SWAP1 PUSH2 0x2044 JUMP JUMPDEST PUSH4 0x5F5E100 PUSH2 0x9A6 SWAP2 SWAP1 PUSH2 0x1EDD JUMP JUMPDEST PUSH2 0xFAC JUMP JUMPDEST DUP8 DUP6 DUP8 PUSH1 0x4 PUSH2 0x9BA SWAP2 SWAP1 PUSH2 0x208F JUMP JUMPDEST PUSH2 0x9C4 SWAP2 SWAP1 PUSH2 0x208F JUMP JUMPDEST PUSH2 0x9CE SWAP2 SWAP1 PUSH2 0x208F JUMP JUMPDEST PUSH2 0x9D8 SWAP2 SWAP1 PUSH2 0x208F JUMP JUMPDEST PUSH1 0x2 DUP6 PUSH2 0x9E5 SWAP2 SWAP1 PUSH2 0x2044 JUMP JUMPDEST DUP6 DUP8 DUP11 PUSH1 0x2 PUSH2 0x9F4 SWAP2 SWAP1 PUSH2 0x208F JUMP JUMPDEST PUSH2 0x9FE SWAP2 SWAP1 PUSH2 0x208F JUMP JUMPDEST PUSH2 0xA08 SWAP2 SWAP1 PUSH2 0x208F JUMP JUMPDEST PUSH1 0x2 DUP9 DUP12 PUSH2 0xA16 SWAP2 SWAP1 PUSH2 0x208F JUMP JUMPDEST PUSH2 0xA20 SWAP2 SWAP1 PUSH2 0x2044 JUMP JUMPDEST PUSH2 0xA2A SWAP2 SWAP1 PUSH2 0x1EDD JUMP JUMPDEST PUSH2 0xA34 SWAP2 SWAP1 PUSH2 0x20D1 JUMP JUMPDEST PUSH2 0x2710 DUP9 PUSH2 0xA42 SWAP2 SWAP1 PUSH2 0x20D1 JUMP JUMPDEST PUSH2 0xA4C SWAP2 SWAP1 PUSH2 0x208F JUMP JUMPDEST PUSH2 0xA56 SWAP2 SWAP1 PUSH2 0x20D1 JUMP JUMPDEST SWAP1 POP PUSH1 0x0 PUSH2 0xA7B DUP8 PUSH2 0x2710 PUSH2 0xA6B SWAP2 SWAP1 PUSH2 0x1EDD JUMP JUMPDEST DUP10 PUSH2 0xA76 SWAP2 SWAP1 PUSH2 0x208F JUMP JUMPDEST PUSH2 0xFAC JUMP JUMPDEST DUP7 PUSH1 0x2 PUSH2 0xA88 SWAP2 SWAP1 PUSH2 0x208F JUMP JUMPDEST PUSH2 0xA92 SWAP2 SWAP1 PUSH2 0x208F JUMP JUMPDEST PUSH2 0xA9B DUP4 PUSH2 0xFAC JUMP JUMPDEST DUP7 DUP9 DUP12 PUSH2 0xAA8 SWAP2 SWAP1 PUSH2 0x208F JUMP JUMPDEST PUSH2 0xAB2 SWAP2 SWAP1 PUSH2 0x1EDD JUMP JUMPDEST PUSH2 0xAC8 PUSH2 0x2710 DUP12 PUSH2 0xAC3 SWAP2 SWAP1 PUSH2 0x20D1 JUMP JUMPDEST PUSH2 0xFAC JUMP JUMPDEST PUSH2 0xAD2 SWAP2 SWAP1 PUSH2 0x208F JUMP JUMPDEST PUSH2 0xADC SWAP2 SWAP1 PUSH2 0x20D1 JUMP JUMPDEST PUSH2 0xAE6 SWAP2 SWAP1 PUSH2 0x2105 JUMP JUMPDEST SWAP1 POP PUSH1 0x0 DUP7 PUSH2 0xAF4 DUP11 PUSH2 0xFAC JUMP JUMPDEST PUSH2 0xAFE SWAP2 SWAP1 PUSH2 0x208F JUMP JUMPDEST DUP7 PUSH2 0xB09 SWAP2 SWAP1 PUSH2 0x2105 JUMP JUMPDEST PUSH2 0xB12 DUP11 PUSH2 0xFAC JUMP JUMPDEST DUP9 DUP5 PUSH2 0xB1E SWAP2 SWAP1 PUSH2 0x208F JUMP JUMPDEST DUP9 PUSH2 0xB29 SWAP2 SWAP1 PUSH2 0x2105 JUMP JUMPDEST PUSH2 0xB33 SWAP2 SWAP1 PUSH2 0x20D1 JUMP JUMPDEST PUSH2 0xB3D SWAP2 SWAP1 PUSH2 0x1EDD JUMP JUMPDEST SWAP1 POP PUSH13 0x1000000000000000000000000 DUP2 PUSH2 0xB58 SWAP2 SWAP1 PUSH2 0x208F JUMP JUMPDEST SWAP5 POP PUSH13 0x1000000000000000000000000 DUP3 PUSH2 0xB73 SWAP2 SWAP1 PUSH2 0x208F JUMP JUMPDEST SWAP4 POP POP POP POP SWAP5 POP SWAP5 SWAP3 POP POP POP JUMP JUMPDEST PUSH1 0x0 DUP2 DUP3 SWAP2 POP DUP2 PUSH20 0xFFFFFFFFFFFFFFFFFFFFFFFFFFFFFFFFFFFFFFFF AND EQ PUSH2 0xBA8 JUMPI PUSH1 0x0 DUP1 REVERT JUMPDEST SWAP2 SWAP1 POP JUMP JUMPDEST PUSH1 0x0 PUSH5 0x1000276A3 PUSH20 0xFFFFFFFFFFFFFFFFFFFFFFFFFFFFFFFFFFFFFFFF AND DUP3 PUSH20 0xFFFFFFFFFFFFFFFFFFFFFFFFFFFFFFFFFFFFFFFF AND LT ISZERO DUP1 ISZERO PUSH2 0xC2F JUMPI POP PUSH20 0xFFFD8963EFD1FC6A506488495D951D5263988D26 PUSH20 0xFFFFFFFFFFFFFFFFFFFFFFFFFFFFFFFFFFFFFFFF AND DUP3 PUSH20 0xFFFFFFFFFFFFFFFFFFFFFFFFFFFFFFFFFFFFFFFF AND LT JUMPDEST PUSH2 0xC6E JUMPI PUSH1 0x40 MLOAD PUSH32 0x8C379A000000000000000000000000000000000000000000000000000000000 DUP2 MSTORE PUSH1 0x4 ADD PUSH2 0xC65 SWAP1 PUSH2 0x2182 JUMP JUMPDEST PUSH1 0x40 MLOAD DUP1 SWAP2 SUB SWAP1 REVERT JUMPDEST PUSH1 0x0 PUSH1 0x20 DUP4 PUSH20 0xFFFFFFFFFFFFFFFFFFFFFFFFFFFFFFFFFFFFFFFF AND SWAP1 SHL SWAP1 POP PUSH1 0x0 DUP2 SWAP1 POP PUSH1 0x0 PUSH16 0xFFFFFFFFFFFFFFFFFFFFFFFFFFFFFFFF DUP3 GT PUSH1 0x7 SHL DUP1 DUP3 OR SWAP2 POP DUP3 DUP2 SHR SWAP3 POP POP PUSH8 0xFFFFFFFFFFFFFFFF DUP3 GT PUSH1 0x6 SHL DUP1 DUP3 OR SWAP2 POP DUP3 DUP2 SHR SWAP3 POP POP PUSH4 0xFFFFFFFF DUP3 GT PUSH1 0x5 SHL DUP1 DUP3 OR SWAP2 POP DUP3 DUP2 SHR SWAP3 POP POP PUSH2 0xFFFF DUP3 GT PUSH1 0x4 SHL DUP1 DUP3 OR SWAP2 POP DUP3 DUP2 SHR SWAP3 POP POP PUSH1 0xFF DUP3 GT PUSH1 0x3 SHL DUP1 DUP3 OR SWAP2 POP DUP3 DUP2 SHR SWAP3 POP POP PUSH1 0xF DUP3 GT PUSH1 0x2 SHL DUP1 DUP3 OR SWAP2 POP DUP3 DUP2 SHR SWAP3 POP POP PUSH1 0x3 DUP3 GT PUSH1 0x1 SHL DUP1 DUP3 OR SWAP2 POP DUP3 DUP2 SHR SWAP3 POP POP PUSH1 0x1 DUP3 GT DUP1 DUP3 OR SWAP2 POP POP PUSH1 0x80 DUP2 LT PUSH2 0xD55 JUMPI PUSH1 0x7F DUP2 PUSH2 0xD4B SWAP2 SWAP1 PUSH2 0x1EDD JUMP JUMPDEST DUP4 SWAP1 SHR SWAP2 POP PUSH2 0xD68 JUMP JUMPDEST DUP1 PUSH1 0x7F PUSH2 0xD62 SWAP2 SWAP1 PUSH2 0x1EDD JUMP JUMPDEST DUP4 SWAP1 SHL SWAP2 POP JUMPDEST PUSH1 0x0 PUSH1 0x40 PUSH1 0x80 DUP4 PUSH2 0xD79 SWAP2 SWAP1 PUSH2 0x21AC JUMP JUMPDEST SWAP1 SHL SWAP1 POP DUP3 DUP4 MUL PUSH1 0x7F SHR SWAP3 POP DUP3 PUSH1 0x80 SHR DUP1 PUSH1 0x3F SHL DUP3 OR SWAP2 POP DUP4 DUP2 SHR SWAP4 POP POP DUP3 DUP4 MUL PUSH1 0x7F SHR SWAP3 POP DUP3 PUSH1 0x80 SHR DUP1 PUSH1 0x3E SHL DUP3 OR SWAP2 POP DUP4 DUP2 SHR SWAP4 POP POP DUP3 DUP4 MUL PUSH1 0x7F SHR SWAP3 POP DUP3 PUSH1 0x80 SHR DUP1 PUSH1 0x3D SHL DUP3 OR SWAP2 POP DUP4 DUP2 SHR SWAP4 POP POP DUP3 DUP4 MUL PUSH1 0x7F SHR SWAP3 POP DUP3 PUSH1 0x80 SHR DUP1 PUSH1 0x3C SHL DUP3 OR SWAP2 POP DUP4 DUP2 SHR SWAP4 POP POP DUP3 DUP4 MUL PUSH1 0x7F SHR SWAP3 POP DUP3 PUSH1 0x80 SHR DUP1 PUSH1 0x3B SHL DUP3 OR SWAP2 POP DUP4 DUP2 SHR SWAP4 POP POP DUP3 DUP4 MUL PUSH1 0x7F SHR SWAP3 POP DUP3 PUSH1 0x80 SHR DUP1 PUSH1 0x3A SHL DUP3 OR SWAP2 POP DUP4 DUP2 SHR SWAP4 POP POP DUP3 DUP4 MUL PUSH1 0x7F SHR SWAP3 POP DUP3 PUSH1 0x80 SHR DUP1 PUSH1 0x39 SHL DUP3 OR SWAP2 POP DUP4 DUP2 SHR SWAP4 POP POP DUP3 DUP4 MUL PUSH1 0x7F SHR SWAP3 POP DUP3 PUSH1 0x80 SHR DUP1 PUSH1 0x38 SHL DUP3 OR SWAP2 POP DUP4 DUP2 SHR SWAP4 POP POP DUP3 DUP4 MUL PUSH1 0x7F SHR SWAP3 POP DUP3 PUSH1 0x80 SHR DUP1 PUSH1 0x37 SHL DUP3 OR SWAP2 POP DUP4 DUP2 SHR SWAP4 POP POP DUP3 DUP4 MUL PUSH1 0x7F SHR SWAP3 POP DUP3 PUSH1 0x80 SHR DUP1 PUSH1 0x36 SHL DUP3 OR SWAP2 POP DUP4 DUP2 SHR SWAP4 POP POP DUP3 DUP4 MUL PUSH1 0x7F SHR SWAP3 POP DUP3 PUSH1 0x80 SHR DUP1 PUSH1 0x35 SHL DUP3 OR SWAP2 POP DUP4 DUP2 SHR SWAP4 POP POP DUP3 DUP4 MUL PUSH1 0x7F SHR SWAP3 POP DUP3 PUSH1 0x80 SHR DUP1 PUSH1 0x34 SHL DUP3 OR SWAP2 POP DUP4 DUP2 SHR SWAP4 POP POP DUP3 DUP4 MUL PUSH1 0x7F SHR SWAP3 POP DUP3 PUSH1 0x80 SHR DUP1 PUSH1 0x33 SHL DUP3 OR SWAP2 POP DUP4 DUP2 SHR SWAP4 POP POP DUP3 DUP4 MUL PUSH1 0x7F SHR SWAP3 POP DUP3 PUSH1 0x80 SHR DUP1 PUSH1 0x32 SHL DUP3 OR SWAP2 POP POP PUSH1 0x0 PUSH10 0x3627A301D71055774C85 DUP3 PUSH2 0xEFC SWAP2 SWAP1 PUSH2 0x21EF JUMP JUMPDEST SWAP1 POP PUSH1 0x0 PUSH1 0x80 PUSH16 0x28F6481AB7F045A5AF012A19D003AAA DUP4 PUSH2 0xF1E SWAP2 SWAP1 PUSH2 0x21AC JUMP JUMPDEST SWAP1 SAR SWAP1 POP PUSH1 0x0 PUSH1 0x80 PUSH16 0xDB2DF09E81959A81455E260799A0632F DUP5 PUSH2 0xF42 SWAP2 SWAP1 PUSH2 0x2267 JUMP JUMPDEST SWAP1 SAR SWAP1 POP DUP1 PUSH1 0x2 SIGNEXTEND DUP3 PUSH1 0x2 SIGNEXTEND EQ PUSH2 0xF9C JUMPI DUP9 PUSH20 0xFFFFFFFFFFFFFFFFFFFFFFFFFFFFFFFFFFFFFFFF AND PUSH2 0xF73 DUP3 PUSH2 0x1026 JUMP JUMPDEST PUSH20 0xFFFFFFFFFFFFFFFFFFFFFFFFFFFFFFFFFFFFFFFF AND GT ISZERO PUSH2 0xF95 JUMPI DUP2 PUSH2 0xF97 JUMP JUMPDEST DUP1 JUMPDEST PUSH2 0xF9E JUMP JUMPDEST DUP2 JUMPDEST SWAP8 POP POP POP POP POP POP POP POP SWAP2 SWAP1 POP JUMP JUMPDEST PUSH1 0x0 PUSH1 0x3 DUP3 GT ISZERO PUSH2 0x1013 JUMPI DUP2 SWAP1 POP PUSH1 0x0 PUSH1 0x1 PUSH1 0x2 DUP5 PUSH2 0xFCB SWAP2 SWAP1 PUSH2 0x2105 JUMP JUMPDEST PUSH2 0xFD5 SWAP2 SWAP1 PUSH2 0x20D1 JUMP JUMPDEST SWAP1 POP JUMPDEST DUP2 DUP2 LT ISZERO PUSH2 0x100D JUMPI DUP1 SWAP2 POP PUSH1 0x2 DUP2 DUP3 DUP6 PUSH2 0xFF2 SWAP2 SWAP1 PUSH2 0x2105 JUMP JUMPDEST PUSH2 0xFFC SWAP2 SWAP1 PUSH2 0x20D1 JUMP JUMPDEST PUSH2 0x1006 SWAP2 SWAP1 PUSH2 0x2105 JUMP JUMPDEST SWAP1 POP PUSH2 0xFD8 JUMP JUMPDEST POP PUSH2 0x1021 JUMP JUMPDEST PUSH1 0x0 DUP3 EQ PUSH2 0x1020 JUMPI PUSH1 0x1 SWAP1 POP JUMPDEST JUMPDEST SWAP2 SWAP1 POP JUMP JUMPDEST PUSH1 0x0 DUP1 PUSH1 0x0 DUP4 PUSH1 0x2 SIGNEXTEND SLT PUSH2 0x103D JUMPI DUP3 PUSH1 0x2 SIGNEXTEND PUSH2 0x104B JUMP JUMPDEST DUP3 PUSH1 0x2 SIGNEXTEND PUSH2 0x104A SWAP1 PUSH2 0x22AB JUMP JUMPDEST JUMPDEST SWAP1 POP PUSH1 0x0 DUP1 PUSH1 0x1 DUP4 AND SUB PUSH2 0x1070 JUMPI PUSH17 0x100000000000000000000000000000000 PUSH2 0x1082 JUMP JUMPDEST PUSH16 0xFFFCB933BD6FAD37AA2D162D1A594001 JUMPDEST PUSH17 0xFFFFFFFFFFFFFFFFFFFFFFFFFFFFFFFFFF AND SWAP1 POP PUSH1 0x0 PUSH1 0x2 DUP4 AND EQ PUSH2 0x10C5 JUMPI PUSH1 0x80 PUSH16 0xFFF97272373D413259A46990580E213A DUP3 PUSH2 0x10C0 SWAP2 SWAP1 PUSH2 0x208F JUMP JUMPDEST SWAP1 SHR SWAP1 POP JUMPDEST PUSH1 0x0 PUSH1 0x4 DUP4 AND EQ PUSH2 0x10F3 JUMPI PUSH1 0x80 PUSH16 0xFFF2E50F5F656932EF12357CF3C7FDCC DUP3 PUSH2 0x10EE SWAP2 SWAP1 PUSH2 0x208F JUMP JUMPDEST SWAP1 SHR SWAP1 POP JUMPDEST PUSH1 0x0 PUSH1 0x8 DUP4 AND EQ PUSH2 0x1121 JUMPI PUSH1 0x80 PUSH16 0xFFE5CACA7E10E4E61C3624EAA0941CD0 DUP3 PUSH2 0x111C SWAP2 SWAP1 PUSH2 0x208F JUMP JUMPDEST SWAP1 SHR SWAP1 POP JUMPDEST PUSH1 0x0 PUSH1 0x10 DUP4 AND EQ PUSH2 0x114F JUMPI PUSH1 0x80 PUSH16 0xFFCB9843D60F6159C9DB58835C926644 DUP3 PUSH2 0x114A SWAP2 SWAP1 PUSH2 0x208F JUMP JUMPDEST SWAP1 SHR SWAP1 POP JUMPDEST PUSH1 0x0 PUSH1 0x20 DUP4 AND EQ PUSH2 0x117D JUMPI PUSH1 0x80 PUSH16 0xFF973B41FA98C081472E6896DFB254C0 DUP3 PUSH2 0x1178 SWAP2 SWAP1 PUSH2 0x208F JUMP JUMPDEST SWAP1 SHR SWAP1 POP JUMPDEST PUSH1 0x0 PUSH1 0x40 DUP4 AND EQ PUSH2 0x11AB JUMPI PUSH1 0x80 PUSH16 0xFF2EA16466C96A3843EC78B326B52861 DUP3 PUSH2 0x11A6 SWAP2 SWAP1 PUSH2 0x208F JUMP JUMPDEST SWAP1 SHR SWAP1 POP JUMPDEST PUSH1 0x0 PUSH1 0x80 DUP4 AND EQ PUSH2 0x11D9 JUMPI PUSH1 0x80 PUSH16 0xFE5DEE046A99A2A811C461F1969C3053 DUP3 PUSH2 0x11D4 SWAP2 SWAP1 PUSH2 0x208F JUMP JUMPDEST SWAP1 SHR SWAP1 POP JUMPDEST PUSH1 0x0 PUSH2 0x100 DUP4 AND EQ PUSH2 0x1208 JUMPI PUSH1 0x80 PUSH16 0xFCBE86C7900A88AEDCFFC83B479AA3A4 DUP3 PUSH2 0x1203 SWAP2 SWAP1 PUSH2 0x208F JUMP JUMPDEST SWAP1 SHR SWAP1 POP JUMPDEST PUSH1 0x0 PUSH2 0x200 DUP4 AND EQ PUSH2 0x1237 JUMPI PUSH1 0x80 PUSH16 0xF987A7253AC413176F2B074CF7815E54 DUP3 PUSH2 0x1232 SWAP2 SWAP1 PUSH2 0x208F JUMP JUMPDEST SWAP1 SHR SWAP1 POP JUMPDEST PUSH1 0x0 PUSH2 0x400 DUP4 AND EQ PUSH2 0x1266 JUMPI PUSH1 0x80 PUSH16 0xF3392B0822B70005940C7A398E4B70F3 DUP3 PUSH2 0x1261 SWAP2 SWAP1 PUSH2 0x208F JUMP JUMPDEST SWAP1 SHR SWAP1 POP JUMPDEST PUSH1 0x0 PUSH2 0x800 DUP4 AND EQ PUSH2 0x1295 JUMPI PUSH1 0x80 PUSH16 0xE7159475A2C29B7443B29C7FA6E889D9 DUP3 PUSH2 0x1290 SWAP2 SWAP1 PUSH2 0x208F JUMP JUMPDEST SWAP1 SHR SWAP1 POP JUMPDEST PUSH1 0x0 PUSH2 0x1000 DUP4 AND EQ PUSH2 0x12C4 JUMPI PUSH1 0x80 PUSH16 0xD097F3BDFD2022B8845AD8F792AA5825 DUP3 PUSH2 0x12BF SWAP2 SWAP1 PUSH2 0x208F JUMP JUMPDEST SWAP1 SHR SWAP1 POP JUMPDEST PUSH1 0x0 PUSH2 0x2000 DUP4 AND EQ PUSH2 0x12F3 JUMPI PUSH1 0x80 PUSH16 0xA9F746462D870FDF8A65DC1F90E061E5 DUP3 PUSH2 0x12EE SWAP2 SWAP1 PUSH2 0x208F JUMP JUMPDEST SWAP1 SHR SWAP1 POP JUMPDEST PUSH1 0x0 PUSH2 0x4000 DUP4 AND EQ PUSH2 0x1322 JUMPI PUSH1 0x80 PUSH16 0x70D869A156D2A1B890BB3DF62BAF32F7 DUP3 PUSH2 0x131D SWAP2 SWAP1 PUSH2 0x208F JUMP JUMPDEST SWAP1 SHR SWAP1 POP JUMPDEST PUSH1 0x0 PUSH2 0x8000 DUP4 AND EQ PUSH2 0x1351 JUMPI PUSH1 0x80 PUSH16 0x31BE135F97D08FD981231505542FCFA6 DUP3 PUSH2 0x134C SWAP2 SWAP1 PUSH2 0x208F JUMP JUMPDEST SWAP1 SHR SWAP1 POP JUMPDEST PUSH1 0x0 PUSH3 0x10000 DUP4 AND EQ PUSH2 0x1381 JUMPI PUSH1 0x80 PUSH16 0x9AA508B5B7A84E1C677DE54F3E99BC9 DUP3 PUSH2 0x137C SWAP2 SWAP1 PUSH2 0x208F JUMP JUMPDEST SWAP1 SHR SWAP1 POP JUMPDEST PUSH1 0x0 PUSH3 0x20000 DUP4 AND EQ PUSH2 0x13B0 JUMPI PUSH1 0x80 PUSH15 0x5D6AF8DEDB81196699C329225EE604 DUP3 PUSH2 0x13AB SWAP2 SWAP1 PUSH2 0x208F JUMP JUMPDEST SWAP1 SHR SWAP1 POP JUMPDEST PUSH1 0x0 PUSH3 0x40000 DUP4 AND EQ PUSH2 0x13DE JUMPI PUSH1 0x80 PUSH14 0x2216E584F5FA1EA926041BEDFE98 DUP3 PUSH2 0x13D9 SWAP2 SWAP1 PUSH2 0x208F JUMP JUMPDEST SWAP1 SHR SWAP1 POP JUMPDEST PUSH1 0x0 PUSH3 0x80000 DUP4 AND EQ PUSH2 0x140A JUMPI PUSH1 0x80 PUSH12 0x48A170391F7DC42444E8FA2 DUP3 PUSH2 0x1405 SWAP2 SWAP1 PUSH2 0x208F JUMP JUMPDEST SWAP1 SHR SWAP1 POP JUMPDEST PUSH1 0x0 DUP5 PUSH1 0x2 SIGNEXTEND SGT ISZERO PUSH2 0x1445 JUMPI DUP1 PUSH32 0xFFFFFFFFFFFFFFFFFFFFFFFFFFFFFFFFFFFFFFFFFFFFFFFFFFFFFFFFFFFFFFFF PUSH2 0x1442 SWAP2 SWAP1 PUSH2 0x2105 JUMP JUMPDEST SWAP1 POP JUMPDEST PUSH1 0x0 PUSH5 0x100000000 DUP3 PUSH2 0x1458 SWAP2 SWAP1 PUSH2 0x22F3 JUMP JUMPDEST EQ PUSH2 0x1464 JUMPI PUSH1 0x1 PUSH2 0x1467 JUMP JUMPDEST PUSH1 0x0 JUMPDEST PUSH1 0xFF AND PUSH1 0x20 DUP3 SWAP1 SHR PUSH2 0x1479 SWAP2 SWAP1 PUSH2 0x20D1 JUMP JUMPDEST SWAP3 POP POP POP SWAP2 SWAP1 POP JUMP JUMPDEST PUSH1 0x0 DUP1 REVERT JUMPDEST PUSH1 0x0 PUSH20 0xFFFFFFFFFFFFFFFFFFFFFFFFFFFFFFFFFFFFFFFF DUP3 AND SWAP1 POP SWAP2 SWAP1 POP JUMP JUMPDEST PUSH1 0x0 PUSH2 0x14B2 DUP3 PUSH2 0x1487 JUMP JUMPDEST SWAP1 POP SWAP2 SWAP1 POP JUMP JUMPDEST PUSH2 0x14C2 DUP2 PUSH2 0x14A7 JUMP JUMPDEST DUP2 EQ PUSH2 0x14CD JUMPI PUSH1 0x0 DUP1 REVERT JUMPDEST POP JUMP JUMPDEST PUSH1 0x0 DUP2 CALLDATALOAD SWAP1 POP PUSH2 0x14DF DUP2 PUSH2 0x14B9 JUMP JUMPDEST SWAP3 SWAP2 POP POP JUMP JUMPDEST PUSH1 0x0 PUSH1 0x20 DUP3 DUP5 SUB SLT ISZERO PUSH2 0x14FB JUMPI PUSH2 0x14FA PUSH2 0x1482 JUMP JUMPDEST JUMPDEST PUSH1 0x0 PUSH2 0x1509 DUP5 DUP3 DUP6 ADD PUSH2 0x14D0 JUMP JUMPDEST SWAP2 POP POP SWAP3 SWAP2 POP POP JUMP JUMPDEST PUSH2 0x151B DUP2 PUSH2 0x14A7 JUMP JUMPDEST DUP3 MSTORE POP POP JUMP JUMPDEST PUSH1 0x0 PUSH3 0xFFFFFF DUP3 AND SWAP1 POP SWAP2 SWAP1 POP JUMP JUMPDEST PUSH2 0x1539 DUP2 PUSH2 0x1521 JUMP JUMPDEST DUP3 MSTORE POP POP JUMP JUMPDEST PUSH1 0x0 DUP2 SWAP1 POP SWAP2 SWAP1 POP JUMP JUMPDEST PUSH2 0x1552 DUP2 PUSH2 0x153F JUMP JUMPDEST DUP3 MSTORE POP POP JUMP JUMPDEST PUSH1 0x0 PUSH1 0x80 DUP3 ADD SWAP1 POP PUSH2 0x156D PUSH1 0x0 DUP4 ADD DUP8 PUSH2 0x1512 JUMP JUMPDEST PUSH2 0x157A PUSH1 0x20 DUP4 ADD DUP7 PUSH2 0x1512 JUMP JUMPDEST PUSH2 0x1587 PUSH1 0x40 DUP4 ADD DUP6 PUSH2 0x1530 JUMP JUMPDEST PUSH2 0x1594 PUSH1 0x60 DUP4 ADD DUP5 PUSH2 0x1549 JUMP JUMPDEST SWAP6 SWAP5 POP POP POP POP POP JUMP JUMPDEST PUSH2 0x15A6 DUP2 PUSH2 0x153F JUMP JUMPDEST DUP2 EQ PUSH2 0x15B1 JUMPI PUSH1 0x0 DUP1 REVERT JUMPDEST POP JUMP JUMPDEST PUSH1 0x0 DUP2 CALLDATALOAD SWAP1 POP PUSH2 0x15C3 DUP2 PUSH2 0x159D JUMP JUMPDEST SWAP3 SWAP2 POP POP JUMP JUMPDEST PUSH1 0x0 DUP1 PUSH1 0x0 DUP1 PUSH1 0x80 DUP6 DUP8 SUB SLT ISZERO PUSH2 0x15E3 JUMPI PUSH2 0x15E2 PUSH2 0x1482 JUMP JUMPDEST JUMPDEST PUSH1 0x0 PUSH2 0x15F1 DUP8 DUP3 DUP9 ADD PUSH2 0x14D0 JUMP JUMPDEST SWAP5 POP POP PUSH1 0x20 PUSH2 0x1602 DUP8 DUP3 DUP9 ADD PUSH2 0x15B4 JUMP JUMPDEST SWAP4 POP POP PUSH1 0x40 PUSH2 0x1613 DUP8 DUP3 DUP9 ADD PUSH2 0x15B4 JUMP JUMPDEST SWAP3 POP POP PUSH1 0x60 PUSH2 0x1624 DUP8 DUP3 DUP9 ADD PUSH2 0x15B4 JUMP JUMPDEST SWAP2 POP POP SWAP3 SWAP6 SWAP2 SWAP5 POP SWAP3 POP JUMP JUMPDEST PUSH1 0x0 DUP2 PUSH1 0x2 SIGNEXTEND SWAP1 POP SWAP2 SWAP1 POP JUMP JUMPDEST PUSH2 0x1646 DUP2 PUSH2 0x1630 JUMP JUMPDEST DUP3 MSTORE POP POP JUMP JUMPDEST PUSH1 0x0 PUSH1 0x40 DUP3 ADD SWAP1 POP PUSH2 0x1661 PUSH1 0x0 DUP4 ADD DUP6 PUSH2 0x163D JUMP JUMPDEST PUSH2 0x166E PUSH1 0x20 DUP4 ADD DUP5 PUSH2 0x163D JUMP JUMPDEST SWAP4 SWAP3 POP POP POP JUMP JUMPDEST PUSH1 0x0 DUP2 SWAP1 POP SWAP2 SWAP1 POP JUMP JUMPDEST PUSH1 0x0 PUSH2 0x169A PUSH2 0x1695 PUSH2 0x1690 DUP5 PUSH2 0x1487 JUMP JUMPDEST PUSH2 0x1675 JUMP JUMPDEST PUSH2 0x1487 JUMP JUMPDEST SWAP1 POP SWAP2 SWAP1 POP JUMP JUMPDEST PUSH1 0x0 PUSH2 0x16AC DUP3 PUSH2 0x167F JUMP JUMPDEST SWAP1 POP SWAP2 SWAP1 POP JUMP JUMPDEST PUSH1 0x0 PUSH2 0x16BE DUP3 PUSH2 0x16A1 JUMP JUMPDEST SWAP1 POP SWAP2 SWAP1 POP JUMP JUMPDEST PUSH2 0x16CE DUP2 PUSH2 0x16B3 JUMP JUMPDEST DUP3 MSTORE POP POP JUMP JUMPDEST PUSH1 0x0 PUSH1 0x20 DUP3 ADD SWAP1 POP PUSH2 0x16E9 PUSH1 0x0 DUP4 ADD DUP5 PUSH2 0x16C5 JUMP JUMPDEST SWAP3 SWAP2 POP POP JUMP JUMPDEST PUSH1 0x0 DUP1 PUSH1 0x0 DUP1 PUSH1 0x80 DUP6 DUP8 SUB SLT ISZERO PUSH2 0x1709 JUMPI PUSH2 0x1708 PUSH2 0x1482 JUMP JUMPDEST JUMPDEST PUSH1 0x0 PUSH2 0x1717 DUP8 DUP3 DUP9 ADD PUSH2 0x15B4 JUMP JUMPDEST SWAP5 POP POP PUSH1 0x20 PUSH2 0x1728 DUP8 DUP3 DUP9 ADD PUSH2 0x15B4 JUMP JUMPDEST SWAP4 POP POP PUSH1 0x40 PUSH2 0x1739 DUP8 DUP3 DUP9 ADD PUSH2 0x15B4 JUMP JUMPDEST SWAP3 POP POP PUSH1 0x60 PUSH2 0x174A DUP8 DUP3 DUP9 ADD PUSH2 0x15B4 JUMP JUMPDEST SWAP2 POP POP SWAP3 SWAP6 SWAP2 SWAP5 POP SWAP3 POP JUMP JUMPDEST PUSH1 0x0 DUP2 MLOAD SWAP1 POP PUSH2 0x1765 DUP2 PUSH2 0x14B9 JUMP JUMPDEST SWAP3 SWAP2 POP POP JUMP JUMPDEST PUSH1 0x0 PUSH1 0x20 DUP3 DUP5 SUB SLT ISZERO PUSH2 0x1781 JUMPI PUSH2 0x1780 PUSH2 0x1482 JUMP JUMPDEST JUMPDEST PUSH1 0x0 PUSH2 0x178F DUP5 DUP3 DUP6 ADD PUSH2 0x1756 JUMP JUMPDEST SWAP2 POP POP SWAP3 SWAP2 POP POP JUMP JUMPDEST PUSH2 0x17A1 DUP2 PUSH2 0x1521 JUMP JUMPDEST DUP2 EQ PUSH2 0x17AC JUMPI PUSH1 0x0 DUP1 REVERT JUMPDEST POP JUMP JUMPDEST PUSH1 0x0 DUP2 MLOAD SWAP1 POP PUSH2 0x17BE DUP2 PUSH2 0x1798 JUMP JUMPDEST SWAP3 SWAP2 POP POP JUMP JUMPDEST PUSH1 0x0 PUSH1 0x20 DUP3 DUP5 SUB SLT ISZERO PUSH2 0x17DA JUMPI PUSH2 0x17D9 PUSH2 0x1482 JUMP JUMPDEST JUMPDEST PUSH1 0x0 PUSH2 0x17E8 DUP5 DUP3 DUP6 ADD PUSH2 0x17AF JUMP JUMPDEST SWAP2 POP POP SWAP3 SWAP2 POP POP JUMP JUMPDEST PUSH2 0x17FA DUP2 PUSH2 0x1487 JUMP JUMPDEST DUP2 EQ PUSH2 0x1805 JUMPI PUSH1 0x0 DUP1 REVERT JUMPDEST POP JUMP JUMPDEST PUSH1 0x0 DUP2 MLOAD SWAP1 POP PUSH2 0x1817 DUP2 PUSH2 0x17F1 JUMP JUMPDEST SWAP3 SWAP2 POP POP JUMP JUMPDEST PUSH2 0x1826 DUP2 PUSH2 0x1630 JUMP JUMPDEST DUP2 EQ PUSH2 0x1831 JUMPI PUSH1 0x0 DUP1 REVERT JUMPDEST POP JUMP JUMPDEST PUSH1 0x0 DUP2 MLOAD SWAP1 POP PUSH2 0x1843 DUP2 PUSH2 0x181D JUMP JUMPDEST SWAP3 SWAP2 POP POP JUMP JUMPDEST PUSH1 0x0 PUSH2 0xFFFF DUP3 AND SWAP1 POP SWAP2 SWAP1 POP JUMP JUMPDEST PUSH2 0x1860 DUP2 PUSH2 0x1849 JUMP JUMPDEST DUP2 EQ PUSH2 0x186B JUMPI PUSH1 0x0 DUP1 REVERT JUMPDEST POP JUMP JUMPDEST PUSH1 0x0 DUP2 MLOAD SWAP1 POP PUSH2 0x187D DUP2 PUSH2 0x1857 JUMP JUMPDEST SWAP3 SWAP2 POP POP JUMP JUMPDEST PUSH1 0x0 PUSH1 0xFF DUP3 AND SWAP1 POP SWAP2 SWAP1 POP JUMP JUMPDEST PUSH2 0x1899 DUP2 PUSH2 0x1883 JUMP JUMPDEST DUP2 EQ PUSH2 0x18A4 JUMPI PUSH1 0x0 DUP1 REVERT JUMPDEST POP JUMP JUMPDEST PUSH1 0x0 DUP2 MLOAD SWAP1 POP PUSH2 0x18B6 DUP2 PUSH2 0x1890 JUMP JUMPDEST SWAP3 SWAP2 POP POP JUMP JUMPDEST PUSH1 0x0 DUP2 ISZERO ISZERO SWAP1 POP SWAP2 SWAP1 POP JUMP JUMPDEST PUSH2 0x18D1 DUP2 PUSH2 0x18BC JUMP JUMPDEST DUP2 EQ PUSH2 0x18DC JUMPI PUSH1 0x0 DUP1 REVERT JUMPDEST POP JUMP JUMPDEST PUSH1 0x0 DUP2 MLOAD SWAP1 POP PUSH2 0x18EE DUP2 PUSH2 0x18C8 JUMP JUMPDEST SWAP3 SWAP2 POP POP JUMP JUMPDEST PUSH1 0x0 DUP1 PUSH1 0x0 DUP1 PUSH1 0x0 DUP1 PUSH1 0x0 PUSH1 0xE0 DUP9 DUP11 SUB SLT ISZERO PUSH2 0x1913 JUMPI PUSH2 0x1912 PUSH2 0x1482 JUMP JUMPDEST JUMPDEST PUSH1 0x0 PUSH2 0x1921 DUP11 DUP3 DUP12 ADD PUSH2 0x1808 JUMP JUMPDEST SWAP8 POP POP PUSH1 0x20 PUSH2 0x1932 DUP11 DUP3 DUP12 ADD PUSH2 0x1834 JUMP JUMPDEST SWAP7 POP POP PUSH1 0x40 PUSH2 0x1943 DUP11 DUP3 DUP12 ADD PUSH2 0x186E JUMP JUMPDEST SWAP6 POP POP PUSH1 0x60 PUSH2 0x1954 DUP11 DUP3 DUP12 ADD PUSH2 0x186E JUMP JUMPDEST SWAP5 POP POP PUSH1 0x80 PUSH2 0x1965 DUP11 DUP3 DUP12 ADD PUSH2 0x186E JUMP JUMPDEST SWAP4 POP POP PUSH1 0xA0 PUSH2 0x1976 DUP11 DUP3 DUP12 ADD PUSH2 0x18A7 JUMP JUMPDEST SWAP3 POP POP PUSH1 0xC0 PUSH2 0x1987 DUP11 DUP3 DUP12 ADD PUSH2 0x18DF JUMP JUMPDEST SWAP2 POP POP SWAP3 SWAP6 SWAP9 SWAP2 SWAP5 SWAP8 POP SWAP3 SWAP6 POP JUMP JUMPDEST PUSH32 0x4E487B7100000000000000000000000000000000000000000000000000000000 PUSH1 0x0 MSTORE PUSH1 0x11 PUSH1 0x4 MSTORE PUSH1 0x24 PUSH1 0x0 REVERT JUMPDEST PUSH1 0x0 PUSH2 0x19D0 DUP3 PUSH2 0x1487 JUMP JUMPDEST SWAP2 POP PUSH2 0x19DB DUP4 PUSH2 0x1487 JUMP JUMPDEST SWAP3 POP DUP3 DUP3 MUL PUSH2 0x19E9 DUP2 PUSH2 0x1487 JUMP JUMPDEST SWAP2 POP DUP3 DUP3 DIV DUP5 EQ DUP4 ISZERO OR PUSH2 0x1A00 JUMPI PUSH2 0x19FF PUSH2 0x1996 JUMP JUMPDEST JUMPDEST POP SWAP3 SWAP2 POP POP JUMP JUMPDEST PUSH1 0x0 PUSH25 0xFFFFFFFFFFFFFFFFFFFFFFFFFFFFFFFFFFFFFFFFFFFFFFFFFF DUP3 AND SWAP1 POP SWAP2 SWAP1 POP JUMP JUMPDEST PUSH32 0x4E487B7100000000000000000000000000000000000000000000000000000000 PUSH1 0x0 MSTORE PUSH1 0x12 PUSH1 0x4 MSTORE PUSH1 0x24 PUSH1 0x0 REVERT JUMPDEST PUSH1 0x0 PUSH2 0x1A66 DUP3 PUSH2 0x1A07 JUMP JUMPDEST SWAP2 POP PUSH2 0x1A71 DUP4 PUSH2 0x1A07 JUMP JUMPDEST SWAP3 POP DUP3 PUSH2 0x1A81 JUMPI PUSH2 0x1A80 PUSH2 0x1A2C JUMP JUMPDEST JUMPDEST DUP3 DUP3 DIV SWAP1 POP SWAP3 SWAP2 POP POP JUMP JUMPDEST PUSH1 0x0 DUP3 DUP3 MSTORE PUSH1 0x20 DUP3 ADD SWAP1 POP SWAP3 SWAP2 POP POP JUMP JUMPDEST PUSH32 0x43616E6E6F7420616464203020616D6F756E74206F6620666972737420746F6B PUSH1 0x0 DUP3 ADD MSTORE PUSH32 0x656E000000000000000000000000000000000000000000000000000000000000 PUSH1 0x20 DUP3 ADD MSTORE POP JUMP JUMPDEST PUSH1 0x0 PUSH2 0x1AF9 PUSH1 0x22 DUP4 PUSH2 0x1A8C JUMP JUMPDEST SWAP2 POP PUSH2 0x1B04 DUP3 PUSH2 0x1A9D JUMP JUMPDEST PUSH1 0x40 DUP3 ADD SWAP1 POP SWAP2 SWAP1 POP JUMP JUMPDEST PUSH1 0x0 PUSH1 0x20 DUP3 ADD SWAP1 POP DUP2 DUP2 SUB PUSH1 0x0 DUP4 ADD MSTORE PUSH2 0x1B28 DUP2 PUSH2 0x1AEC JUMP JUMPDEST SWAP1 POP SWAP2 SWAP1 POP JUMP JUMPDEST PUSH32 0x43616E6E6F7420616464203020616D6F756E74206F66207365636F6E6420746F PUSH1 0x0 DUP3 ADD MSTORE PUSH32 0x6B656E0000000000000000000000000000000000000000000000000000000000 PUSH1 0x20 DUP3 ADD MSTORE POP JUMP JUMPDEST PUSH1 0x0 PUSH2 0x1B8B PUSH1 0x23 DUP4 PUSH2 0x1A8C JUMP JUMPDEST SWAP2 POP PUSH2 0x1B96 DUP3 PUSH2 0x1B2F JUMP JUMPDEST PUSH1 0x40 DUP3 ADD SWAP1 POP SWAP2 SWAP1 POP JUMP JUMPDEST PUSH1 0x0 PUSH1 0x20 DUP3 ADD SWAP1 POP DUP2 DUP2 SUB PUSH1 0x0 DUP4 ADD MSTORE PUSH2 0x1BBA DUP2 PUSH2 0x1B7E JUMP JUMPDEST SWAP1 POP SWAP2 SWAP1 POP JUMP JUMPDEST PUSH32 0x43616E6E6F7420616464206C6971756964697479207769746820302077696474 PUSH1 0x0 DUP3 ADD MSTORE PUSH32 0x6800000000000000000000000000000000000000000000000000000000000000 PUSH1 0x20 DUP3 ADD MSTORE POP JUMP JUMPDEST PUSH1 0x0 PUSH2 0x1C1D PUSH1 0x21 DUP4 PUSH2 0x1A8C JUMP JUMPDEST SWAP2 POP PUSH2 0x1C28 DUP3 PUSH2 0x1BC1 JUMP JUMPDEST PUSH1 0x40 DUP3 ADD SWAP1 POP SWAP2 SWAP1 POP JUMP JUMPDEST PUSH1 0x0 PUSH1 0x20 DUP3 ADD SWAP1 POP DUP2 DUP2 SUB PUSH1 0x0 DUP4 ADD MSTORE PUSH2 0x1C4C DUP2 PUSH2 0x1C10 JUMP JUMPDEST SWAP1 POP SWAP2 SWAP1 POP JUMP JUMPDEST PUSH1 0x0 PUSH1 0x60 DUP3 ADD SWAP1 POP PUSH2 0x1C68 PUSH1 0x0 DUP4 ADD DUP7 PUSH2 0x1512 JUMP JUMPDEST PUSH2 0x1C75 PUSH1 0x20 DUP4 ADD DUP6 PUSH2 0x1512 JUMP JUMPDEST PUSH2 0x1C82 PUSH1 0x40 DUP4 ADD DUP5 PUSH2 0x1549 JUMP JUMPDEST SWAP5 SWAP4 POP POP POP POP JUMP JUMPDEST PUSH1 0x0 PUSH1 0x20 DUP3 DUP5 SUB SLT ISZERO PUSH2 0x1CA0 JUMPI PUSH2 0x1C9F PUSH2 0x1482 JUMP JUMPDEST JUMPDEST PUSH1 0x0 PUSH2 0x1CAE DUP5 DUP3 DUP6 ADD PUSH2 0x18DF JUMP JUMPDEST SWAP2 POP POP SWAP3 SWAP2 POP POP JUMP JUMPDEST PUSH1 0x0 PUSH1 0x40 DUP3 ADD SWAP1 POP PUSH2 0x1CCC PUSH1 0x0 DUP4 ADD DUP6 PUSH2 0x1512 JUMP JUMPDEST PUSH2 0x1CD9 PUSH1 0x20 DUP4 ADD DUP5 PUSH2 0x1549 JUMP JUMPDEST SWAP4 SWAP3 POP POP POP JUMP JUMPDEST PUSH2 0x1CE9 DUP2 PUSH2 0x14A7 JUMP JUMPDEST DUP3 MSTORE POP POP JUMP JUMPDEST PUSH2 0x1CF8 DUP2 PUSH2 0x1521 JUMP JUMPDEST DUP3 MSTORE POP POP JUMP JUMPDEST PUSH2 0x1D07 DUP2 PUSH2 0x1630 JUMP JUMPDEST DUP3 MSTORE POP POP JUMP JUMPDEST PUSH2 0x1D16 DUP2 PUSH2 0x153F JUMP JUMPDEST DUP3 MSTORE POP POP JUMP JUMPDEST PUSH2 0x160 DUP3 ADD PUSH1 0x0 DUP3 ADD MLOAD PUSH2 0x1D33 PUSH1 0x0 DUP6 ADD DUP3 PUSH2 0x1CE0 JUMP JUMPDEST POP PUSH1 0x20 DUP3 ADD MLOAD PUSH2 0x1D46 PUSH1 0x20 DUP6 ADD DUP3 PUSH2 0x1CE0 JUMP JUMPDEST POP PUSH1 0x40 DUP3 ADD MLOAD PUSH2 0x1D59 PUSH1 0x40 DUP6 ADD DUP3 PUSH2 0x1CEF JUMP JUMPDEST POP PUSH1 0x60 DUP3 ADD MLOAD PUSH2 0x1D6C PUSH1 0x60 DUP6 ADD DUP3 PUSH2 0x1CFE JUMP JUMPDEST POP PUSH1 0x80 DUP3 ADD MLOAD PUSH2 0x1D7F PUSH1 0x80 DUP6 ADD DUP3 PUSH2 0x1CFE JUMP JUMPDEST POP PUSH1 0xA0 DUP3 ADD MLOAD PUSH2 0x1D92 PUSH1 0xA0 DUP6 ADD DUP3 PUSH2 0x1D0D JUMP JUMPDEST POP PUSH1 0xC0 DUP3 ADD MLOAD PUSH2 0x1DA5 PUSH1 0xC0 DUP6 ADD DUP3 PUSH2 0x1D0D JUMP JUMPDEST POP PUSH1 0xE0 DUP3 ADD MLOAD PUSH2 0x1DB8 PUSH1 0xE0 DUP6 ADD DUP3 PUSH2 0x1D0D JUMP JUMPDEST POP PUSH2 0x100 DUP3 ADD MLOAD PUSH2 0x1DCD PUSH2 0x100 DUP6 ADD DUP3 PUSH2 0x1D0D JUMP JUMPDEST POP PUSH2 0x120 DUP3 ADD MLOAD PUSH2 0x1DE2 PUSH2 0x120 DUP6 ADD DUP3 PUSH2 0x1CE0 JUMP JUMPDEST POP PUSH2 0x140 DUP3 ADD MLOAD PUSH2 0x1DF7 PUSH2 0x140 DUP6 ADD DUP3 PUSH2 0x1D0D JUMP JUMPDEST POP POP POP POP JUMP JUMPDEST PUSH1 0x0 PUSH2 0x160 DUP3 ADD SWAP1 POP PUSH2 0x1E13 PUSH1 0x0 DUP4 ADD DUP5 PUSH2 0x1D1C JUMP JUMPDEST SWAP3 SWAP2 POP POP JUMP JUMPDEST PUSH1 0x0 DUP2 MLOAD SWAP1 POP PUSH2 0x1E28 DUP2 PUSH2 0x159D JUMP JUMPDEST SWAP3 SWAP2 POP POP JUMP JUMPDEST PUSH1 0x0 PUSH16 0xFFFFFFFFFFFFFFFFFFFFFFFFFFFFFFFF DUP3 AND SWAP1 POP SWAP2 SWAP1 POP JUMP JUMPDEST PUSH2 0x1E53 DUP2 PUSH2 0x1E2E JUMP JUMPDEST DUP2 EQ PUSH2 0x1E5E JUMPI PUSH1 0x0 DUP1 REVERT JUMPDEST POP JUMP JUMPDEST PUSH1 0x0 DUP2 MLOAD SWAP1 POP PUSH2 0x1E70 DUP2 PUSH2 0x1E4A JUMP JUMPDEST SWAP3 SWAP2 POP POP JUMP JUMPDEST PUSH1 0x0 DUP1 PUSH1 0x0 DUP1 PUSH1 0x80 DUP6 DUP8 SUB SLT ISZERO PUSH2 0x1E90 JUMPI PUSH2 0x1E8F PUSH2 0x1482 JUMP JUMPDEST JUMPDEST PUSH1 0x0 PUSH2 0x1E9E DUP8 DUP3 DUP9 ADD PUSH2 0x1E19 JUMP JUMPDEST SWAP5 POP POP PUSH1 0x20 PUSH2 0x1EAF DUP8 DUP3 DUP9 ADD PUSH2 0x1E61 JUMP JUMPDEST SWAP4 POP POP PUSH1 0x40 PUSH2 0x1EC0 DUP8 DUP3 DUP9 ADD PUSH2 0x1E19 JUMP JUMPDEST SWAP3 POP POP PUSH1 0x60 PUSH2 0x1ED1 DUP8 DUP3 DUP9 ADD PUSH2 0x1E19 JUMP JUMPDEST SWAP2 POP POP SWAP3 SWAP6 SWAP2 SWAP5 POP SWAP3 POP JUMP JUMPDEST PUSH1 0x0 PUSH2 0x1EE8 DUP3 PUSH2 0x153F JUMP JUMPDEST SWAP2 POP PUSH2 0x1EF3 DUP4 PUSH2 0x153F JUMP JUMPDEST SWAP3 POP DUP3 DUP3 SUB SWAP1 POP DUP2 DUP2 GT ISZERO PUSH2 0x1F0B JUMPI PUSH2 0x1F0A PUSH2 0x1996 JUMP JUMPDEST JUMPDEST SWAP3 SWAP2 POP POP JUMP JUMPDEST PUSH1 0x0 DUP2 PUSH1 0x1 SHR SWAP1 POP SWAP2 SWAP1 POP JUMP JUMPDEST PUSH1 0x0 DUP1 DUP3 SWAP2 POP DUP4 SWAP1 POP JUMPDEST PUSH1 0x1 DUP6 GT ISZERO PUSH2 0x1F68 JUMPI DUP1 DUP7 DIV DUP2 GT ISZERO PUSH2 0x1F44 JUMPI PUSH2 0x1F43 PUSH2 0x1996 JUMP JUMPDEST JUMPDEST PUSH1 0x1 DUP6 AND ISZERO PUSH2 0x1F53 JUMPI DUP1 DUP3 MUL SWAP2 POP JUMPDEST DUP1 DUP2 MUL SWAP1 POP PUSH2 0x1F61 DUP6 PUSH2 0x1F11 JUMP JUMPDEST SWAP5 POP PUSH2 0x1F28 JUMP JUMPDEST SWAP5 POP SWAP5 SWAP3 POP POP POP JUMP JUMPDEST PUSH1 0x0 DUP3 PUSH2 0x1F81 JUMPI PUSH1 0x1 SWAP1 POP PUSH2 0x203D JUMP JUMPDEST DUP2 PUSH2 0x1F8F JUMPI PUSH1 0x0 SWAP1 POP PUSH2 0x203D JUMP JUMPDEST DUP2 PUSH1 0x1 DUP2 EQ PUSH2 0x1FA5 JUMPI PUSH1 0x2 DUP2 EQ PUSH2 0x1FAF JUMPI PUSH2 0x1FDE JUMP JUMPDEST PUSH1 0x1 SWAP2 POP POP PUSH2 0x203D JUMP JUMPDEST PUSH1 0xFF DUP5 GT ISZERO PUSH2 0x1FC1 JUMPI PUSH2 0x1FC0 PUSH2 0x1996 JUMP JUMPDEST JUMPDEST DUP4 PUSH1 0x2 EXP SWAP2 POP DUP5 DUP3 GT ISZERO PUSH2 0x1FD8 JUMPI PUSH2 0x1FD7 PUSH2 0x1996 JUMP JUMPDEST JUMPDEST POP PUSH2 0x203D JUMP JUMPDEST POP PUSH1 0x20 DUP4 LT PUSH2 0x133 DUP4 LT AND PUSH1 0x4E DUP5 LT PUSH1 0xB DUP5 LT AND OR ISZERO PUSH2 0x2013 JUMPI DUP3 DUP3 EXP SWAP1 POP DUP4 DUP2 GT ISZERO PUSH2 0x200E JUMPI PUSH2 0x200D PUSH2 0x1996 JUMP JUMPDEST JUMPDEST PUSH2 0x203D JUMP JUMPDEST PUSH2 0x2020 DUP5 DUP5 DUP5 PUSH1 0x1 PUSH2 0x1F1E JUMP JUMPDEST SWAP3 POP SWAP1 POP DUP2 DUP5 DIV DUP2 GT ISZERO PUSH2 0x2037 JUMPI PUSH2 0x2036 PUSH2 0x1996 JUMP JUMPDEST JUMPDEST DUP2 DUP2 MUL SWAP1 POP JUMPDEST SWAP4 SWAP3 POP POP POP JUMP JUMPDEST PUSH1 0x0 PUSH2 0x204F DUP3 PUSH2 0x153F JUMP JUMPDEST SWAP2 POP PUSH2 0x205A DUP4 PUSH2 0x1883 JUMP JUMPDEST SWAP3 POP PUSH2 0x2087 PUSH32 0xFFFFFFFFFFFFFFFFFFFFFFFFFFFFFFFFFFFFFFFFFFFFFFFFFFFFFFFFFFFFFFFF DUP5 DUP5 PUSH2 0x1F71 JUMP JUMPDEST SWAP1 POP SWAP3 SWAP2 POP POP JUMP JUMPDEST PUSH1 0x0 PUSH2 0x209A DUP3 PUSH2 0x153F JUMP JUMPDEST SWAP2 POP PUSH2 0x20A5 DUP4 PUSH2 0x153F JUMP JUMPDEST SWAP3 POP DUP3 DUP3 MUL PUSH2 0x20B3 DUP2 PUSH2 0x153F JUMP JUMPDEST SWAP2 POP DUP3 DUP3 DIV DUP5 EQ DUP4 ISZERO OR PUSH2 0x20CA JUMPI PUSH2 0x20C9 PUSH2 0x1996 JUMP JUMPDEST JUMPDEST POP SWAP3 SWAP2 POP POP JUMP JUMPDEST PUSH1 0x0 PUSH2 0x20DC DUP3 PUSH2 0x153F JUMP JUMPDEST SWAP2 POP PUSH2 0x20E7 DUP4 PUSH2 0x153F JUMP JUMPDEST SWAP3 POP DUP3 DUP3 ADD SWAP1 POP DUP1 DUP3 GT ISZERO PUSH2 0x20FF JUMPI PUSH2 0x20FE PUSH2 0x1996 JUMP JUMPDEST JUMPDEST SWAP3 SWAP2 POP POP JUMP JUMPDEST PUSH1 0x0 PUSH2 0x2110 DUP3 PUSH2 0x153F JUMP JUMPDEST SWAP2 POP PUSH2 0x211B DUP4 PUSH2 0x153F JUMP JUMPDEST SWAP3 POP DUP3 PUSH2 0x212B JUMPI PUSH2 0x212A PUSH2 0x1A2C JUMP JUMPDEST JUMPDEST DUP3 DUP3 DIV SWAP1 POP SWAP3 SWAP2 POP POP JUMP JUMPDEST PUSH32 0x5200000000000000000000000000000000000000000000000000000000000000 PUSH1 0x0 DUP3 ADD MSTORE POP JUMP JUMPDEST PUSH1 0x0 PUSH2 0x216C PUSH1 0x1 DUP4 PUSH2 0x1A8C JUMP JUMPDEST SWAP2 POP PUSH2 0x2177 DUP3 PUSH2 0x2136 JUMP JUMPDEST PUSH1 0x20 DUP3 ADD SWAP1 POP SWAP2 SWAP1 POP JUMP JUMPDEST PUSH1 0x0 PUSH1 0x20 DUP3 ADD SWAP1 POP DUP2 DUP2 SUB PUSH1 0x0 DUP4 ADD MSTORE PUSH2 0x219B DUP2 PUSH2 0x215F JUMP JUMPDEST SWAP1 POP SWAP2 SWAP1 POP JUMP JUMPDEST PUSH1 0x0 DUP2 SWAP1 POP SWAP2 SWAP1 POP JUMP JUMPDEST PUSH1 0x0 PUSH2 0x21B7 DUP3 PUSH2 0x21A2 JUMP JUMPDEST SWAP2 POP PUSH2 0x21C2 DUP4 PUSH2 0x21A2 JUMP JUMPDEST SWAP3 POP DUP3 DUP3 SUB SWAP1 POP DUP2 DUP2 SLT PUSH1 0x0 DUP5 SLT AND DUP3 DUP3 SGT PUSH1 0x0 DUP6 SLT ISZERO AND OR ISZERO PUSH2 0x21E9 JUMPI PUSH2 0x21E8 PUSH2 0x1996 JUMP JUMPDEST JUMPDEST SWAP3 SWAP2 POP POP JUMP JUMPDEST PUSH1 0x0 PUSH2 0x21FA DUP3 PUSH2 0x21A2 JUMP JUMPDEST SWAP2 POP PUSH2 0x2205 DUP4 PUSH2 0x21A2 JUMP JUMPDEST SWAP3 POP DUP3 DUP3 MUL PUSH2 0x2213 DUP2 PUSH2 0x21A2 JUMP JUMPDEST SWAP2 POP PUSH32 0x8000000000000000000000000000000000000000000000000000000000000000 DUP5 EQ PUSH1 0x0 DUP5 SLT AND ISZERO PUSH2 0x224B JUMPI PUSH2 0x224A PUSH2 0x1996 JUMP JUMPDEST JUMPDEST DUP3 DUP3 SDIV DUP5 EQ DUP4 ISZERO OR PUSH2 0x2260 JUMPI PUSH2 0x225F PUSH2 0x1996 JUMP JUMPDEST JUMPDEST POP SWAP3 SWAP2 POP POP JUMP JUMPDEST PUSH1 0x0 PUSH2 0x2272 DUP3 PUSH2 0x21A2 JUMP JUMPDEST SWAP2 POP PUSH2 0x227D DUP4 PUSH2 0x21A2 JUMP JUMPDEST SWAP3 POP DUP3 DUP3 ADD SWAP1 POP DUP3 DUP2 SLT ISZERO PUSH1 0x0 DUP4 SLT AND DUP4 DUP3 SLT PUSH1 0x0 DUP5 SLT ISZERO AND OR ISZERO PUSH2 0x22A5 JUMPI PUSH2 0x22A4 PUSH2 0x1996 JUMP JUMPDEST JUMPDEST SWAP3 SWAP2 POP POP JUMP JUMPDEST PUSH1 0x0 PUSH2 0x22B6 DUP3 PUSH2 0x21A2 JUMP JUMPDEST SWAP2 POP PUSH32 0x8000000000000000000000000000000000000000000000000000000000000000 DUP3 SUB PUSH2 0x22E8 JUMPI PUSH2 0x22E7 PUSH2 0x1996 JUMP JUMPDEST JUMPDEST DUP2 PUSH1 0x0 SUB SWAP1 POP SWAP2 SWAP1 POP JUMP JUMPDEST PUSH1 0x0 PUSH2 0x22FE DUP3 PUSH2 0x153F JUMP JUMPDEST SWAP2 POP PUSH2 0x2309 DUP4 PUSH2 0x153F JUMP JUMPDEST SWAP3 POP DUP3 PUSH2 0x2319 JUMPI PUSH2 0x2318 PUSH2 0x1A2C JUMP JUMPDEST JUMPDEST DUP3 DUP3 MOD SWAP1 POP SWAP3 SWAP2 POP POP JUMP INVALID LOG2 PUSH5 0x6970667358 0x22 SLT KECCAK256 PUSH25 0x8C080D8A044205F20530C6529D8FD84AFB4FD730455E9E07A1 0xCC EQ 0xCF 0x27 0xD8 CALL PUSH5 0x736F6C6343 STOP ADDMOD SHL STOP CALLER "
        },
        "methodIdentifiers": {
          "addLiquidity(address,uint256,uint256,uint256)": "1ece366a",
          "countTicks(uint256,uint256,uint256,uint256)": "f70963ba",
          "getPoolInfo(address)": "06bfa938",
          "positionManager()": "791b98bc"
        }
      }
    }
  }
}